:020000040800F2
:1000000048070020910100089B1800082D170008E0
:1000100099180008650500080F1900080000000085
:100020000000000000000000000000009F18000811
:100030008D080008000000009D180008A1180008A5
:10004000AB010008AB010008AB010008AB010008E0
:10005000AB010008AB010008AB010008AB010008D0
:10006000AB010008AB010008AB010008AB010008C0
:10007000AB010008AB010008AB010008AB010008B0
:10008000AB010008AB010008AB010008AB010008A0
:10009000AB010008AB010008AB010008AB01000890
:1000A000AB010008AB010008AB010008AB01000880
:1000B000AB010008AB010008AB010008AB01000870
:1000C000AB010008AB010008AB010008AB01000860
:1000D000AB010008AB010008AB010008AB01000850
:1000E000AB010008AB010008AB01000800F002F80A
:1000F00000F03FF80AA090E8000C82448344AAF183
:100100000107DA4501D100F034F8AFF2090EBAE880
:100110000F0013F0010F18BFFB1A43F0010318473B
:1001200088200000A8200000103A24BF78C878C1B9
:10013000FAD8520724BF30C830C144BF04680C60ED
:10014000704700000023002400250026103A28BF35
:1001500078C1FBD8520728BF30C148BF0B60704739
:10016000642900F07D80002070471FB51FBD10B5C9
:1001700010BD00F052F91146FFF7F7FF01F0D8FB70
:1001800000F070F903B4FFF7F2FF03BC00F078F958
:100190000948804709480047FEE7FEE7FEE7FEE71B
:1001A000FEE7FEE7FEE7FEE7FEE7FEE70448054957
:1001B000054A064B704700000D190008ED000008C5
:1001C0004801002048070020480300204803002081
:1001D0000FB41CB5074B06AA7B44694600900598EE
:1001E00000F003F90020694600F012F91CBC5DF82C
:1001F00014FB0000350200002DE9F0410E460446D4
:10020000002020622046E168884730B3252805D0C9
:10021000D4E901219047206A401CF2E7E1682046BA
:1002200000278847050018D0A5F14100192802D8F9
:1002300020354FF400673246294620462760FFF7F5
:100240008FFF40B1012804D0F61D26F007060836BE
:10025000D8E7361DD6E72846DAE7206ABDE8F08100
:100260002DE9F0410646002410687529314616A58F
:1002700010D0AFF30080002802DA404213A507E057
:1002800031688A0701D512A502E0490704D511A5F6
:10029000012401E0AFF3008000210A2206F12407C7
:1002A00009E0B0FBF2FCB0FBF2F302FB1C003030C3
:1002B00078541846491C0028F3D123462A46304674
:1002C000BDE8F04100F032B8000000002D00000051
:1002D0002B000000200000004FF0000200B5134684
:1002E00094469646203922BFA0E80C50A0E80C5056
:1002F000B1F12001BFF4F7AF090728BFA0E80C5007
:1003000048BF0CC05DF804EB890028BF40F8042BFF
:1003100008BF704748BF20F8022B11F0804F18BF6C
:1003200000F8012B70477047704770472DE9F04780
:100330000D4699469246044600F124080168880655
:1003400004D5E06921F01001216000E00120A842FD
:1003500001DD471B00E00027A1697A1902EB0900C3
:10036000081AA0612078C00602D42046AFF30080AE
:10037000002608E0D4E901211AF806009047206A17
:10038000401C761C20624E45F4DB2078C0060AD55E
:100390002046AFF3008006E0D4E9012130209047E9
:1003A000206A401C2062381EA7F10107F4DC07E038
:1003B000D4E9012118F805009047206A401C20620A
:1003C000281EA5F10105F3DC2046AFF3008020785C
:1003D000000602D50220BDE8F0870120FBE70000FF
:1003E00001694A1C02610878704700B58FB0CDE9F9
:1003F00001310021059105497944CDE903101146E9
:100400006846FFF7F9FE0FB000BD0000E5FFFFFFF3
:100410000A6802F8010B0A607047754600F02CF874
:10042000AE4605006946534620F00700854618B0E1
:1004300020B5FFF7BBFEBDE820404FF000064FF0AF
:1004400000074FF000084FF0000B21F00701AC4609
:10045000ACE8C009ACE8C009ACE8C009ACE8C00928
:100460008D46704710B50446AFF300802046BDE8C6
:100470001040FFF787BE000000487047E8000020EA
:1004800001491820ABBEFEE72600020070470000BD
:1004900070B5044600688168C943C90717D18168EF
:1004A00021F00101816000F079FD05460AE000BFFE
:1004B00000F074FD401B022804D920688068C04306
:1004C000C00706D020688068C043C007F0D0002075
:1004D00070BDA06A40F01000A062E06A40F0010028
:1004E000E062012070BD0000F8B5002604460096C9
:1004F00000688168C943C9072DD0816841F00101B6
:100500008160164816490068B0FBF1F000E0401E1B
:1005100000900028FBD100F041FD054616E000BF29
:1005200000F03CFD401B022810D920688068C043C1
:10053000C0070BD0A06A40F01000A062E06A40F053
:100540000100E06284F824600120F8BD2068806822
:10055000C043C007E4D10020F8BD00002C000020FB
:1005600040420F00FEE72DE9F05F0446DDE9109000
:10057000DDE90C65DDE90AC7DDE90EEB4FF00008A7
:10058000DDF84CA084F800806170A2706360A4F86C
:1005900008C0E76026826563A4F838E0C4F83CB080
:1005A000A4F8409060641298A4F84800C4F84CA0E5
:1005B0001498A4F85000282084F85500062084F8E8
:1005C00052000C2084F85300142084F85400322088
:1005D00000F0D8FB00223321204600F06FF8052000
:1005E00000F0D0FB00223321204600F067F8052000
:1005F00000F0C8FB00223221204600F05FF8052001
:1006000000F0C0FB94F852100022204600F056F88B
:1006100094F853100022204600F050F894F854103B
:100620000022204600F04AF894F855100022204697
:1006300000F044F800220121204600F03FF8204657
:10064000BDE8F05F0022022100F038B810B5017853
:10065000102901D029B108E00022012100F0A3F8FF
:1006600003E00022012100F029F8BDE81040052038
:1006700000F088BB08B510A31B68009343788B4239
:1006800001D85B1ED9B28378934201D85B1EDAB2DF
:100690001DF8022011440278C9B2102A06D0002A9F
:1006A00003D141F0800100F009F808BD41F080015C
:1006B000002200F078F808BD0040145470B50446DC
:1006C0000E090D4612B1012A04D008E0218900224A
:1006D000606802E021890122606800F05AFC218FE5
:1006E000606B06F001020C3400F053FCA18EC6F3DF
:1006F0004002206B00F04DFCA18FC6F38002A06B7E
:1007000000F047FCB4F84410F208206C00F041FC03
:10071000A1880022206800F03CFC012000F032FBA0
:10072000A1880122206800F034FC012000F02AFB9F
:10073000A1880022206800F02CFC012000F022FBA0
:1007400005F00102A18DA06A00F023FCA18EC5F383
:100750004002206B00F01DFCA18FC5F38002A06B4E
:1007600000F017FCB4F84410C5F3C002206C00F090
:1007700010FCA1880022206800F00BFC012000F092
:1007800001FBA1880122206800F003FC012000F099
:10079000F9FAA1880022206800F0FBFBBDE8704058
:1007A000012000F0EFBA70B50D46044612B1012ADF
:1007B00004D008E021890022606802E0218901223A
:1007C000606800F0E6FB218B606905F001020C34E3
:1007D00000F0DFFBA18AC5F34002206900F0D9FBDD
:1007E000A18BC5F38002A06900F0D3FBA18CC5F3F7
:1007F000C002206A00F0CDFBA18DC5F30012A06AF3
:1008000000F0C7FBA18EC5F34012206B00F0C1FBC6
:10081000A18FC5F38012A06B00F0BBFBEA09B4F80E
:100820004410206C00F0B5FBA1880022206800F085
:10083000B0FB012000F0A6FAA1880122206800F098
:10084000A8FB012000F09EFAA1880022206800F099
:10085000A0FBBDE87040012000F094BA0278102A95
:1008600004D0002A05D10122FFF728BF0122FFF79B
:100870009ABF704770B50C46054603E02846641CD5
:10088000FFF7ECFF21780029F8D170BD7047000018
:100890000EB50020009001200190054802906946A5
:1008A000044800F01DF8002801D072B6FEE70EBD26
:1008B0006DDBB600300000200EB502200090012054
:1008C0000190054802906946044800F009F80028A4
:1008D00001D072B6FEE70EBD6DDBB60060000020F1
:1008E000F8B50024009490F824202546012A12D05F
:1008F000012280F824204A681F23072A0DD20668A7
:10090000776B521E02EB820293409F430B68934029
:100910001F43776319E00220F8BD06680D2A0AD24A
:10092000376BD21F02EB820293409F430B689340C8
:100930001F43376309E0F76A0D3A02EB82029340E6
:100940009F430B6893401F43F7620A6807230668BA
:100950000A2A0AD3F7680A3A02EB420293409F43FD
:100960008B6893401F43F76008E0376902EB42024F
:1009700093409F438B6893401F4337610A68102A56
:1009800001D0112A20D1124B02689A4217D19368E4
:100990001B0219D4936843F400039360096810297B
:1009A00012D10C490C4A0968B1FBF2F101EB81014B
:1009B000490000E0491E00910029FBD104E0816A52
:1009C00041F020018162012480F824502046F8BDC6
:1009D000002401402C00002040420F000068C06C41
:1009E000704700002DE9F0414FF0000704003D463C
:1009F0007ED0A06A002628B9E66284F824602046EA
:100A000000F07EF82046FFF743FDA16AC90600D436
:100A100020B1A06A40F01000A06269E0A16A21F450
:100A2000885141F00201A1626268E169237B0A43B7
:100A300047EA43010A43A1684FF48077B94209D0DD
:100A4000012907D05FF0000194F814C0BCF1010F38
:100A500002D00AE03946F7E7F3B1A36A43F0200376
:100A6000A362E36A43F00103E3622368D3F804C09E
:100A70002CF4694C4CEA010CC3F804C021688B6863
:100A8000DFF870C003EA0C0313438B60A168B9421E
:100A90000BD0012909D00CE0DFF85CC0A3690CEB96
:100AA00043330B4343F40061DFE7218A0D05A5F5CD
:100AB00080152168CB6A23F470032B43CB62216835
:100AC00089680E4B1940914208D1E662A16A21F073
:100AD000020141F00101A162BDE8F081A06A20F0AD
:100AE000020040F01000A062E06A40F00100E06205
:100AF0000120F1E7FDF7E1FF00E0FFFFFE0E1FFF21
:100B000010B586B0002100910191029103911A4C19
:100B100003681A4903221A48A34211D18B6943F48E
:100B200000738B618B6903F4007304938B6943F04A
:100B300004038B61896901F004010491012113E030
:100B4000104CA34215D18B6943F480638B618B6990
:100B500003F4806304938B6943F004038B61896918
:100B600001F0040104910421CDE90012694600F06E
:100B70001BF906B010BD0000002401400010024027
:100B800000080140002801402DE9F84300270D46E8
:100B90000446009700F002FA804620688168C90583
:100BA00008D5A06A40F02000A06284F824700120DB
:100BB000BDE8F8834168C90503D4C06A10F4700F1A
:100BC0002AD0022000F07AFA3B490968B1FBF0F61E
:100BD0002068036939490B424FEA61014FEAA112CB
:100BE0001FD1C3684FEA611C13EA0C0F19D10369C6
:100BF0000B4225D1C068104222D1142023E0681C8A
:100C00000AD02DB100F0CAF9A0EB0800A84203D920
:100C100020680068800725D5206800688007EED529
:100C20002DE003690B4202D1C168114206D002696E
:100C300023490A4206D1C068084203D1542002E089
:100C4000292000E0FC204643009816E0681C11D0E3
:100C50002DB100F0A3F9A0EB0800A8420AD9009832
:100C6000B04207D2A06A40F00400A06284F8247069
:100C700003209DE70098401C0090B042E6D3216815
:100C80006FF012000860A06A40F40070A062206853
:100C90008068C0F3424007280CD1207B50B9A06A7D
:100CA00020F48070A062A06AC00403D4A06A40F05F
:100CB0000100A06200207BE72C0000202449922440
:100CC0004992240070B5044690F8240001280DD004
:100CD000012084F824002046FFF706FC02004FF0B4
:100CE000000005D084F82400104670BD022070BDBD
:100CF000A16A40F20123994341F48071A1621F4D22
:100D000023681F49AB4218D10E6816F4702F14D017
:100D1000A66A46F48016A6620E68760505D5A66A10
:100D200026F4005646F48056A662A66AF6040AD552
:100D3000E66A26F00606E66206E0A66A26F4801653
:100D4000A6625E68E9E7E06284F824006FF00200C2
:100D5000186020688368C3F34243072B05D1A8427B
:100D600008D1096811F4702F04D0816841F4801112
:100D70008160B9E7816841F4A001F9E700280140EA
:100D80000424014070B5044600F008F90546601CD3
:100D900002D004480078044400F000F9401BA0424F
:100DA000FAD370BD200000202DE9F84FDFF8B8918C
:100DB0000024A9F1040B23460F2709F1040AABF123
:100DC000040EC9E00125A5402A40AA427DD1674E04
:100DD000D1F804C0ACEB0608B44532D014DCBCF149
:100DE000030F3AD009DCBCF1000F2AD0BCF1010F8F
:100DF0001CD0BCF1020F31D11DE0BCF1110F17D096
:100E0000BCF1120F2AD119E0B8F5881F19D006DC01
:100E1000B8F5803F15D0B8F5801F1FD111E0B8F5A7
:100E2000001F0ED0B8F5041F18D10AE0CB6815E0FA
:100E3000CB681B1D12E0CB6808330FE0CB680C3386
:100E40000CE08B682BB1012B4FF0080303D04561F8
:100E500004E0042302E0056100E00023FF2A01D83A
:100E6000064601E000F104064FEA840501D9A5F128
:100E70002005D6F8008007FA05FC28EA0C0803FADA
:100E800005F548EA0508C6F800804D68ED0062D512
:100E9000374DAE6946F00106AE61AD6924F0030638
:100EA00005F001050095334D06EB050CDCF8085004
:100EB000A607360F07FA06F825EA0805DFF8B88016
:100EC000404503D14FF0000817E044E0DFF8AC8064
:100ED000404502D14FF001080FE0DFF8A480404503
:100EE00002D14FF0020808E0DFF89880404502D1B7
:100EF0004FF0030801E04FF0040808FA06F848EA4A
:100F00000508CCF808804D68D9F80060ED024D4620
:100F100001D5164300E096432E604D68DAF8006074
:100F2000AD02554601D5164300E096432E604D684C
:100F3000DBF80060AD035D4601D5164300E0964343
:100F40002E604D68DEF80060ED03754601D516434E
:100F500000E096432E60641C0D682A46E5407FF44D
:100F600031AFBDE8F88F0000080401400000111007
:100F7000001002400000014000080140000C014048
:100F800000100140001401408068084000D001209A
:100F900070470AB1016170470904FBE701488068A6
:100FA0007047000020000020024881680278114448
:100FB0008160704720000020074810B5016841F0AB
:100FC00010010160032000F067F80F2000F006F820
:100FD00000F024F8002010BD0020024070B50D4D37
:100FE00004464FF47A712878B1FBF0F00A49096899
:100FF000B1FBF0F000F086FB48B9102C07D20022BC
:101000002146501E00F028F800206C6070BD0120C1
:1010100070BD0000200000202C0000200C4808B506
:10102000816941F001018161816901F00101009153
:10103000C16941F08051C161C06900F080500090E9
:101040000448416821F0E06141F00071416008BD51
:101050000010024000000140F0B40E4B1B680C462B
:10106000C3F30223C3F10705042D00D90425191D7C
:10107000072901D2002300E0DB1E012606FA05F154
:10108000491E214099409E40761E16403143F0BCD7
:1010900000F03EBC0CED00E0064900F007020868D5
:1010A0004FF6FF03184040EA0220034A104308604D
:1010B000704700000CED00E00000FA0510B5014695
:1010C0000020234C012922D0022939D010291DD11A
:1010D00061682268D20119D51E48C1F38342C90351
:1010E000805C0AD561681B4AC1F34041921E515C85
:1010F000194AB2FBF1F1484301E0184948436168DD
:10110000490203D440000321B0FBF1F010BD226A74
:10111000C2F30121012903D1920701D5C80310BDF3
:10112000022905D1626A920702D549F6404010BDF6
:101130000329FCD121688903F9D54FF2244010BD61
:1011400000F01AF96168C1F38131491C4900DBE7FD
:10115000001002408021000800127A0000093D00C2
:101160002DE9F84305460078354CC00754D0E069B6
:101170000026C00008D4E06940F08050E061E069DA
:10118000012600F0805000902E480168C90512D455
:101190000168804641F480710160FFF7FFFE074659
:1011A00005E000BFFFF7FAFEC01B642823D8D8F87B
:1011B0000000C005F6D5206A10F4407021D0A9883F
:1011C00001F4407181421CD0206A1F49012220F4A1
:1011D00040700A6000220A602062C00711D0FFF749
:1011E000DDFE074641F2883808E000BFFFF7D6FE73
:1011F000C11B414502D90320BDE8F883206A80075E
:10120000F4D5206A696820F44070084320621EB15A
:10121000E06920F08050E0612878800705D560689B
:10122000A96820F44040084360602878C00605D5CE
:101230006068E96820F48000084360600020DBE714
:101240000010024000700040400442422DE9F04787
:101250000F46050061D0434E306800F00700B842E9
:1012600009D2306820F0070038433060306800F061
:101270000700B84251D128683B4C810712D540077E
:1012800003D5606840F4E06060602878000703D50B
:10129000606840F4605060606068A96820F0F00009
:1012A000084360602878C00728D06868012810D0FB
:1012B0002168022810D0890700292EDA616821F000
:1012C000030101436160FFF769FE804641F28839FE
:1012D0000DE021688903EFE78901EDE7FFF75EFE86
:1012E000A0EB0801494502D90320BDE8F0876068FA
:1012F000696800F00C00B0EB810FEFD1306800F0AE
:101300000700B8420BD9306820F00700384330603E
:10131000306800F00700B84201D00120E5E72878E6
:10132000400705D56068E96820F4E0600843606024
:101330002878000706D56068296920F4605040EAE3
:10134000C100606000F028F86168084AC1F3031129
:10135000515CC8400649086006480068FFF73EFE39
:101360000020C2E700200240001002409021000847
:101370002C0000202400002004480549006849682A
:10138000044AC1F3C221515CC84070472C000020C0
:1013900000100240A02100080E4A51680E4801F0DA
:1013A0000C03042B11D0082B0FD10C48C1F383433D
:1013B000C903C05C0AD55168084AC1F34041921E76
:1013C000515C054A5043B0FBF1F070470449484373
:1013D000704700000010024000127A006E210008E1
:1013E00000093D002DE9F84F040070D02078C04D71
:1013F000C00749D06868C0F38100012807D0686839
:10140000C0F38100022809D16868C00306D52868A6
:10141000800339D560680028E7D035E06068B0F512
:10142000803F0BD010B1B0F5A02F11D0286820F468
:1014300080302860286820F4802002E0286840F48A
:1014400080302860606890B1FFF7A8FD06460AE08A
:10145000286840F480202860F0E700BFFFF79EFD79
:10146000801B642873D828688003F7D50CE0FFF749
:1014700095FD064605E000BFFFF790FD801B642840
:10148000F0D828688003F7D420789A4E80074FF070
:1014900001094FF0000839D5686810F00C0F07D02B
:1014A0006868C0F38100022809D16868C00306D4C7
:1014B0002868800714D52069012808D110E0206928
:1014C000B0B1C6F80090FFF769FD074605E00AE1F4
:1014D000FFF764FDC01B0228C4D828688007F7D531
:1014E0002868616920F0F80040EAC10028600DE03A
:1014F000C6F80080FFF752FD074604E0FFF74EFDF7
:10150000C01B022823D828688007F7D4207800075A
:101510002CD57948A169D9B1C0F80090FFF73EFDFC
:10152000074604E0FFF73AFDC01B02280FD8686A9F
:101530008007F7D571484FF4FA510068B0FBF1F01D
:10154000009000BF0098411E0091FAD20EE080E0AA
:10155000C0F80080FFF722FD074604E0FFF71EFDFC
:10156000C01B022875D8686A8007F7D42078400726
:1015700060D5E8690027C00008D4E86940F08050D1
:10158000E861E869012700F0805000905C4801683C
:10159000C90513D40168834641F480710160FFF7E7
:1015A000FDFC824606E000BFFFF7F8FCA0EB0A0056
:1015B00064284ED8DBF80000C005F5D5E0680128A6
:1015C0000AD008B1052813D0286A20F0010028624B
:1015D000286A20F0040002E0286A40F00100286236
:1015E000E06841F2883B98B1FFF7D8FC82460BE0F7
:1015F000286A40F004002862EEE700BFFFF7CEFC47
:10160000A0EB0A0159455AD8286A8007F6D50CE0A4
:10161000FFF7C4FC824605E0FFF7C0FCA0EB0A011F
:1016200059454CD8286A8007F6D41FB1E86920F0E4
:101630008050E861E06988B36968C1F381010229DB
:1016400044D00228C6F8608004D0FFF7A7FC044607
:1016500038E034E0FFF7A2FC074604E0FFF79EFC09
:10166000C01B02282BD828688001F7D4206AB0F567
:10167000803F05D16868A16820F4003008436860A5
:10168000D4E908010843696821F4741108436860CB
:10169000C6F86090FFF782FC044606E025E000BF34
:1016A000FFF77CFC001B022809D828688001F7D5C9
:1016B0001BE000BFFFF772FC001B022802D90320C9
:1016C000BDE8F88F28688001F4D40EE00128F7D037
:1016D0006868226A00F48031914204D1616A00F4A2
:1016E0007010884201D00120EAE70020E8E70000FE
:1016F0000010024000004242800442422C000020C0
:101700000070004010B5401EB0F1807F01D3012071
:1017100010BD4FF0E02460610F21601700F0F8F871
:101720000020A06107202061002010BDFEE700001E
:101730003EB5002411480094019402940E4984603F
:10174000016001250573047505614FF46021446053
:10175000C161FFF747F908B172B6FEE705200094B2
:10176000CDE9015069460548FFF7BAF8002801D0D5
:1017700072B6FEE73EBD00000024014030000020AC
:101780003EB500211148009101910F4A029102607B
:1017900001248160047301754FF460220461C26109
:1017A0004160FFF71FF908B172B6FEE70220CDE9EC
:1017B00000040520029069460448FFF791F80028CC
:1017C00001D072B6FEE73EBD002801406000002057
:1017D0002DE9F04385B000242C4800940194029434
:1017E0000394816941F004018161816901F0040180
:1017F0000491816941F0080181618069DFF890807E
:1018000000F0080040F2027504900022294640468C
:10181000FFF7BFFB012230214046FFF7BAFBDFF89C
:1018200074904FF47247002239464846FFF7B1FBE7
:101830000095022601250396CDE9015469464046EC
:10184000FFF7B2FA0820CDE9000469464046029449
:10185000FFF7AAFA3020CDE90005CDE90256694626
:101860004046FFF7A1FA00970396CDE90154694677
:101870004846FFF799FAE020CDE90004694648465A
:101880000294FFF791FA05B0BDE8F0830010024022
:1018900000080140000C0140FEE7FEE7704770477A
:1018A000FFF782BB30B593B028216846FEF714FDE0
:1018B00014210AA8FEF710FD002401200F94022530
:1018C00004900095102011940590109412940794A0
:1018D0006846FFF787FD08B172B6FEE70F20CDE935
:1018E0000A040C940D9400210AA80E94FFF7AEFC94
:1018F00008B172B6FEE70FA80F951194FFF730FC00
:10190000002801D072B6FEE713B030BD7047FEE785
:101910000907090E002804DB00F1E02080F800141C
:10192000704700F00F0000F1E02080F8141D7047B0
:101930008CB0FFF741FBFFF7B5FFFFF749FFFFF75B
:10194000F7FEFFF71DFFA64E4FF40078CDE90768BC
:101950004FF48060CDE909608110CDE90561400157
:10196000A04DCDE903504110C0100090CDE90151C8
:101970002B46022210219C48FEF7F5FD9B4C207857
:1019800020B101287ED002287DD00FE1FEF780FF34
:1019900095486038FFF796F993480A216038FFF7B9
:1019A000F3F891486038FFF719F8904F0C373880FA
:1019B0000220FFF7E7F9FEF77FFF8B483038FFF78B
:1019C00081F989480A213038FFF7DEF88648303837
:1019D000FFF704F878800220FFF7D4F9388800F088
:1019E000B4FA4FF06632824B00F0C2FA0022814B0B
:1019F00000F0BEFA0022804B00F020F900F076FAE9
:101A00000246A06078886421484340F6FF71B0FB2D
:101A1000F1F0606079A107F10C00FEF7D9FB01221B
:101A200000217148FEF726FE07F10C016E48FEF713
:101A300021FF76A1381D6268FEF7CAFB002211461D
:101A40006948FEF717FE391D6748FEF713FF0A20A5
:101A5000FFF798F96178A068884203DCA178606894
:101A6000884224DD002202213046FFF792FA01224B
:101A700041462846FFF78DFA002210213046FFF735
:101A800088FA01E023E04FE0002220213046FFF7F2
:101A900080FA4FF4FA773846FFF774F901220221F1
:101AA0003046FFF776FA3846FFF76CF97EE0012200
:101AB00010213046FFF76DFA012220213046FFF752
:101AC00068FA002241462846FFF763FA6EE080215B
:101AD0002846FFF759FA58B980212846FFF754FAEB
:101AE0000028F9D06078401C60700A20FFF74AF99E
:101AF00040212846FFF748FA58B940212846FFF709
:101B000043FA0028F9D06078401E60700A20FFF781
:101B100039F9012200213448FEF7ACFD62783EA17C
:101B20006846FEF755FB3DE080212846FFF72CFA7A
:101B3000A0B980212846FFF727FA0028F9D0A0781D
:101B40000122401CA07000212748FEF793FD694642
:101B50002548FEF78FFE0A20FFF714F9402128469A
:101B6000FFF712FAA0B940212846FFF70DFA002826
:101B7000F9D0A0780122401EA07000211A48FEF77B
:101B800079FD69461848FEF775FE0A20FFF7FAF856
:101B9000A27826A16846FEF71BFB0122002112480D
:101BA000FEF768FD69461048FEF764FE20212846CE
:101BB000FFF7EAF980B920212846FFF7E5F9002868
:101BC000F9D02078401C20700748FEF73FFD2078B0
:101BD000032801D1002020700A20FFF7D3F8CEE6B9
:101BE00000080140000C014090000020000000208F
:101BF00066660A400000594000FEAF404E686965C5
:101C00007420646F3A202564000000004B6869204E
:101C10006761733A20256400536574206E686965B6
:101C20007420646F3A20256400000000536574201E
:101C30006B6869206761733A202564002DE9C04113
:101C400030B4DFF8A0C23CEA111418BF3CEA131408
:101C500000F0EC8081EA03051CEA111444EAD57413
:101C600018BF1CEA131500F0C780A4EB05044FF061
:101C7000004545EAC12145EAC32341EA505143EA00
:101C8000525304F17F74994204F500344FEAC020A6
:101C90004FEAC22208BF904200F09C804FEA1365D1
:101CA0000FF24016765D4FEA134506FB05F7C7F1C4
:101CB000807706FB07F74FEAD737A7FB0368764222
:101CC000C8F58038A7FB06CE38BFA8F1010807FB8E
:101CD00008E64FF0000EA6FB028CE6FB03CEDCF11B
:101CE000000CCEF1004E38BFAEF1010EA6FB0C5831
:101CF0004FF000074FF00005E6FB0E87A1FB08C67A
:101D0000A0FB07CE16EB0E0645F10005E1FB0765CB
:101D100015F1E04E7EBFA4F580345FEA46066D41C2
:101D200016F1800745F100054FEA17274FEA0666CE
:101D300047EA0567A6F1DE46B6F1805F4FEA152552
:101D40001FD9384624F0010C05EBC471BCF1FE6FBD
:101D500001EB0C1102D8F0BCBDE8008124425CBF4D
:101D600001F5801E9EEAC47F02D4F0BCBDE800816C
:101D7000244238D4F0BCA1F1C041BDE8004100F0DC
:101D8000EFB94FEAD22242EA43524FEAD323A7FBEC
:101D900002864FEAD02040EA415007FB03661EEA64
:101DA0000E0F4FEAD12105FB026658BFA6EB005685
:101DB000B6EB00564FEA520E4EEAC37E18EB0E0EFB
:101DC00056EB530EBDD518EB02085E417F1C55F152
:101DD0000005B6E74FF480154FF000074FF00006FE
:101DE0004FF00008ADE7F0BC4FF0000001F1C0413A
:101DF00001F00041BDE8008111EA0C1F0CEA131547
:101E000000D00CE013EA0C1F00F025804FF000001A
:101E1000F0BC81EA030101F00041BDE80081F0BCA3
:101E2000BDE8004181EA030100F09AB9F0BCBDE8C9
:101E3000004170B500F046F9097EFC3E00F007B89D
:101E400081EA03014FF0000001F00041704781EA90
:101E5000030100F085B9F0BCBDE800414FF000007F
:101E600021497047FFFDFBF9F7F5F4F2F0EEEDEBD9
:101E7000E9E8E6E4E3E1E0DEDDDBDAD8D7D5D4D388
:101E8000D1D0CFCDCCCBCAC8C7C6C5C4C2C1C0BFD4
:101E9000BEBDBCBBBAB9B8B7B6B5B4B3B2B1B0AFDA
:101EA000AEADACABAAA9A8A8A7A6A5A4A3A3A2A1BE
:101EB000A09F9F9E9D9C9C9B9A9999989797969579
:101EC00095949393929191908F8F8E8E8D8C8C8B15
:101ED0008B8A89898888878786858584848383829D
:101EE000828181800000FF070000F87F4FEA4103F4
:101EF0004FEA5353A3F58063D3F11E03C8BFD3F158
:101F0000210C0CDD4FF0004242EAC12242EA50525D
:101F100032FA03FC8CEAE17CACEBE1707047102BE9
:101F2000C4BF0020704703F5787CBCF1FF3F04D0AC
:101F30006FF0004282EA2100704770B500F0C2F8ED
:101F40004992248000207047F2E7B0FA80F310FA3B
:101F500003F10AD0C3F11D0303F580634FEA41503A
:101F60004FEA035202EBD12170474FF00000704757
:101F7000DFF848C170B51CEA111E1EBF1CEA13151C
:101F80009EEA0C0F95EA0C0F00F06F8081EA0304C3
:101F900023EA4C134EEAD47E21EA4C1141F480111D
:101FA00043F48013AE44A1FB024CA0FB0365AEF1E9
:101FB0007F7E361955EB0C05A1FB034C4CF1000359
:101FC000A0FB021C16EB0C06654153F1000309420D
:101FD00018BF46F0010613F4007F0BD14FEA03311E
:101FE0004FEA0530340341EA155140EA16506FF0CC
:101FF00003020AE04FEAC3214FEAC520F40241EA96
:10200000555140EA56506FF0020202EB2E4201EBAE
:10201000025585EACE710AD05FEA440C18BF24F05D
:10202000004450F1000041F1000120EAD47040F278
:10203000FE7C624500D270BDA84214BF4FF08044C0
:102040004FF04044002E08BF0024BEF1806FA8BFAF
:10205000A1F1C041BDE8704080F282804FF00000E5
:1020600001F1C04101F0004170479EEA0C0F0CEAFB
:10207000131518BF95EA0C0F06D04FF0000081EA47
:10208000030E0EF0004170BD00F01CF88900013E07
:1020900000F007B800F009B84FEA430C5FEA5C5C57
:1020A00008D081EA030100F05BB84FEA410C5FEA17
:1020B0005C5CF6D14FF00000014970470000FF075B
:1020C0000000F87F0EF1020E2EF0030E5EF8046B96
:1020D000364205D4012A43EB030515F5001F12D83B
:1020E000012841EB010C1CF5001F0CD80ED14FEA62
:1020F000D17C15F5001F0CEB4C0C0CF1020C08BF49
:102100004CEBD37C04E04FF0080C01E04FEAD37CA9
:102110000CEB4C0526FA05F606F00706B6F1040CA2
:1021200006D20EEB860CBDE870404CF0010C604707
:10213000DFE80CF0090B02024FF000414FF0000005
:10214000A1F5002170BD19461046012851EB01048C
:1021500018BFD4F5001484BF002001F0004170BD09
:102160000808A0F500114FEA31017047010202038F
:102170000405060708090A0B0C0D0E0F10100102CA
:1021800002030405060708090A0B0C0D0E0F1010B8
:102190000000000000000000010203040607080917
:1021A0000000000001020304C82100080000002014
:1021B0003000000028010008F8210008300000204D
:1021C000180700004401000800323200000000003F
:1021D00000000000000000000000000000000000FF
:1021E00000000000000000000100000010000000DE
:0821F0000000000000127A005B
:04000005080000ED02
:00000001FF
