:020000040800F2
:10000000C806002089010008C9350008F10C000865
:10001000992400088F020008B75200080000000071
:10002000000000000000000000000000E94500089A
:100030009102000800000000B14500088B51000843
:10004000A3010008A3010008A3010008A301000800
:10005000A3010008A301000895020008A3010008FD
:10006000A3010008A3010008A3010008A3010008E0
:10007000A3010008A3010008A3010008A3010008D0
:10008000A3010008A3010008A3010008A3010008C0
:10009000A3010008A3010008A3010008A3010008B0
:1000A000A3010008A3010008A3010008A3010008A0
:1000B000A3010008A3010008A3010008A301000890
:1000C000A3010008A3010008A3010008A301000880
:1000D000A3010008A3010008A3010008A301000870
:1000E000A3010008A3010008A301000800F002F822
:1000F00000F03AF80AA090E8000C82448344AAF188
:100100000107DA4501D100F02FF8AFF2090EBAE885
:100110000F0013F0010F18BFFB1A43F0010318473B
:10012000585B0000785B0000103A24BF78C878C1A3
:10013000FAD8520724BF30C830C144BF04680C60ED
:10014000704700000023002400250026103A28BF35
:1001500078C1FBD8520728BF30C148BF0B60704739
:100160001FB51FBD10B510BD00F058F81146FFF7C0
:10017000F7FF05F079FC00F076F803B4FFF7F2FF23
:1001800003BC00F07DF8000009488047094800479B
:10019000FEE7FEE7FEE7FEE7FEE7FEE7FEE7FEE737
:1001A000FEE7FEE704480549054A064B7047000094
:1001B000DF510008ED000008C8000020C80600203C
:1001C000C8020020C80200204FF0000200B513460C
:1001D00094469646203922BFA0E80C50A0E80C5067
:1001E000B1F12001BFF4F7AF090728BFA0E80C5018
:1001F00048BF0CC05DF804EB890028BF40F8042B11
:1002000008BF704748BF20F8022B11F0804F18BF7D
:1002100000F8012B7047704770477047754600F033
:100220002BF8AE4605006946534620F00700854688
:1002300018B020B5FFF7B6FFBDE820404FF000062C
:100240004FF000074FF000084FF0000B21F00701BE
:10025000AC46ACE8C009ACE8C009ACE8C009ACE801
:10026000C0098D46704710B50446AFF300802046A4
:10027000BDE81040FFF781BF0048704768000020CC
:1002800001491820ABBEFEE7260002007047FEE7DA
:100290007047000005488178491CC9B2817009295E
:1002A00001D100218170012000F016B8000000206B
:1002B00070B5044600F012F90546601C02D00448EF
:1002C0000078044400F00AF9401BA042FAD370BD44
:1002D0001000002070470000044910B50A6802426F
:1002E00002D00860FFF7F6FF10BD000014040140C3
:1002F0002DE9F84FDFF8B8910024A9F1040B23464B
:100300000F2709F1040AABF1040EC9E00125A5404D
:100310002A40AA427DD1674ED1F804C0ACEB060852
:10032000B44532D014DCBCF1030F3AD009DCBCF187
:10033000000F2AD0BCF1010F1CD0BCF1020F31D14B
:100340001DE0BCF1110F17D0BCF1120F2AD119E03A
:10035000B8F5881F19D006DCB8F5803F15D0B8F580
:10036000801F1FD111E0B8F5001F0ED0B8F5041F93
:1003700018D10AE0CB6815E0CB681B1D12E0CB68F2
:1003800008330FE0CB680C330CE08B682BB1012BEA
:100390004FF0080303D0456104E0042302E0056147
:1003A00000E00023FF2A01D8064601E000F1040620
:1003B0004FEA840501D9A5F12005D6F8008007FA97
:1003C00005FC28EA0C0803FA05F548EA0508C6F812
:1003D00000804D68ED0062D5374DAE6946F00106EC
:1003E000AE61AD6924F0030605F001050095334DBB
:1003F00006EB050CDCF80850A607360F07FA06F8DE
:1004000025EA0805DFF8B880404503D14FF0000821
:1004100017E044E0DFF8AC80404502D14FF001081E
:100420000FE0DFF8A480404502D14FF0020808E059
:10043000DFF89880404502D14FF0030801E04FF00B
:10044000040808FA06F848EA0508CCF808804D6860
:10045000D9F80060ED024D4601D5164300E0964301
:100460002E604D68DAF80060AD02554601D516439E
:1004700000E096432E604D68DBF80060AD035D46FA
:1004800001D5164300E096432E604D68DEF800600B
:10049000ED03754601D5164300E096432E60641CBB
:1004A0000D682A46E5407FF431AFBDE8F88F0000C3
:1004B000080401400000111000100240000001403B
:1004C00000080140000C01400010014000140140F0
:1004D0000AB1016170470904FBE700000148806828
:1004E0007047000010000020024881680278114423
:1004F0008160704710000020074810B5016841F086
:1005000010010160032000F075F80A2000F006F8E1
:1005100000F024F8002010BD0020024070B50D4D01
:1005200004464FF47A712878B1FBF0F00A49096863
:10053000B1FBF0F000F0BCFA48B9102C07D2002251
:100540002146501E00F036F800206C6070BD01207E
:1005500070BD0000100000201C0000200C4808B5F1
:10056000816941F001018161816901F0010100911E
:10057000C16941F08051C161C06900F080500090B4
:100580000448416821F0E06141F00071416008BD1C
:100590000010024000000140002809DB00F01F02AB
:1005A000012191404009800000F1E020C0F80011D5
:1005B00070470000F0B40E4B1B680C46C3F30223D7
:1005C000C3F10705042D00D90425191D072901D2FF
:1005D000002300E0DB1E012606FA05F1491E21403A
:1005E00099409E40761E16403143F0BC04F064BE34
:1005F0000CED00E0064900F0070208684FF6FF0323
:10060000184040EA0220034A104308607047000087
:100610000CED00E00000FA052DE9F0470F4605005B
:1006200061D0434E306800F00700B84209D230680C
:1006300020F0070038433060306800F00700B8420F
:1006400051D128683B4C810712D5400703D560681B
:1006500040F4E06060602878000703D5606840F4EB
:10066000605060606068A96820F0F0000843606036
:100670002878C00728D06868012810D0216802288F
:1006800010D0890700292EDA616821F003010143A7
:100690006160FFF723FF804641F288390DE0216851
:1006A0008903EFE78901EDE7FFF718FFA0EB0801E9
:1006B000494502D90320BDE8F0876068696800F009
:1006C0000C00B0EB810FEFD1306800F00700B842AA
:1006D0000BD9306820F0070038433060306800F0F4
:1006E0000700B84201D00120E5E72878400705D58A
:1006F0006068E96820F4E0600843606028780007DB
:1007000006D56068296920F4605040EAC100606045
:1007100000F018F86168084AC1F30311515CC84041
:100720000649086006480068FFF7F8FE0020C2E7A7
:100730000020024000100240665C00081C000020FF
:10074000140000200E4A51680E4801F00C03042BDF
:1007500011D0082B0FD10C48C1F38343C903C05CEF
:100760000AD55168084AC1F34041921E515C054ABE
:100770005043B0FBF1F07047044948437047000014
:100780000010024000127A00565C000800093D008B
:100790002DE9F84F040070D02078C04DC00749D033
:1007A0006868C0F38100012807D06868C0F3810041
:1007B000022809D16868C00306D52868800339D5A6
:1007C00060680028E7D035E06068B0F5803F0BD066
:1007D00010B1B0F5A02F11D0286820F48030286027
:1007E000286820F4802002E0286840F480302860E7
:1007F000606890B1FFF772FE06460AE0286840F490
:1008000080202860F0E700BFFFF768FE801B6428A7
:1008100073D828688003F7D50CE0FFF75FFE064623
:1008200005E000BFFFF75AFE801B6428F0D8286857
:100830008003F7D420789A4E80074FF001094FF0DB
:10084000000839D5686810F00C0F07D06868C0F34D
:100850008100022809D16868C00306D4286880078F
:1008600014D52069012808D110E02069B0B1C6F87C
:100870000090FFF733FE074605E00AE1FFF72EFE82
:10088000C01B0228C4D828688007F7D5286861698A
:1008900020F0F80040EAC10028600DE0C6F80080B2
:1008A000FFF71CFE074604E0FFF718FEC01B0228F6
:1008B00023D828688007F7D4207800072CD57948FA
:1008C000A169D9B1C0F80090FFF708FE074604E01F
:1008D000FFF704FEC01B02280FD8686A8007F7D50F
:1008E00071484FF4FA510068B0FBF1F0009000BF7E
:1008F0000098411E0091FAD20EE080E0C0F800801E
:10090000FFF7ECFD074604E0FFF7E8FDC01B0228F7
:1009100075D8686A8007F7D42078400760D5E86901
:100920000027C00008D4E86940F08050E861E86919
:10093000012700F0805000905C480168C90513D47D
:100940000168834641F480710160FFF7C7FD82466C
:1009500006E000BFFFF7C2FDA0EB0A0064284ED8F6
:10096000DBF80000C005F5D5E06801280AD008B121
:10097000052813D0286A20F001002862286A20F098
:10098000040002E0286A40F001002862E06841F2B9
:10099000883B98B1FFF7A2FD82460BE0286A40F041
:1009A00004002862EEE700BFFFF798FDA0EB0A0104
:1009B00059455AD8286A8007F6D50CE0FFF78EFD16
:1009C000824605E0FFF78AFDA0EB0A0159454CD8A5
:1009D000286A8007F6D41FB1E86920F08050E861EA
:1009E000E06988B36968C1F38101022944D0022813
:1009F000C6F8608004D0FFF771FD044638E034E0AB
:100A0000FFF76CFD074604E0FFF768FDC01B0228F6
:100A10002BD828688001F7D4206AB0F5803F05D133
:100A20006868A16820F4003008436860D4E90801D0
:100A30000843696821F4741108436860C6F860903F
:100A4000FFF74CFD044606E025E000BFFFF746FD3A
:100A5000001B022809D828688001F7D51BE000BFD9
:100A6000FFF73CFD001B022802D90320BDE8F88FE8
:100A700028688001F4D40EE00128F7D06868226A63
:100A800000F48031914204D1616A00F47010884210
:100A900001D00120EAE70020E8E700000010024052
:100AA00000004242800442421C00002000700040CE
:100AB00010B5401EB0F1807F01D3012010BD4FF072
:100AC000E02460610F21601704F0F6FB0020A061B4
:100AD00007202061002010BD70B590F83C20012A4D
:100AE00026D0012480F83C40022280F83D20036893
:100AF0005A689D6822F070060A6832435A600D4BAE
:100B000002689A4208D0B2F1804F05D00A4B9A424F
:100B100002D00A4B9A4204D1496825F08003194358
:100B2000916080F83D40002180F83C10084670BD7F
:100B3000022070BD002C014000040040000800406D
:100B400010B5040003D094F83D0010B107E0012077
:100B500010BD002084F83C00204600F01FF8022061
:100B600084F83D00211D206804F03AFB012084F840
:100B7000460084F83E0084F83F0084F8400084F882
:100B8000410084F8420084F8430084F8440084F86B
:100B9000450084F83D00002010BD000008B5006845
:100BA0000649884208D10648816941F400618161A3
:100BB000806900F40060009008BD0000002C014036
:100BC0000010024090F83D10012901D0012070472B
:100BD000022180F83D1000680B49884208D0B0F12E
:100BE000804F05D00949884202D00949884204D182
:100BF000816801F00701062903D0016841F0010175
:100C00000160002070470000002C014000040040FB
:100C10000008004070B5044690F83C00002501280B
:100C200017D0012684F83C60022084F83D0020683B
:100C3000826822F0770222F47F428260086850289E
:100C400038D00DDC20284FD005DC90B3102811D10E
:100C50004AE0022070BD302846D040280AD13BE04F
:100C600060282FD070280DD0B0F5805F03D0B0F58C
:100C7000005F12D0012584F83D60002084F83C001C
:100C8000284670BDCB68D1E90121206804F0DEFA66
:100C90002068816841F0770109E0CB68D1E9012142
:100CA000206804F0D3FA2068816841F480418160B3
:100CB000E1E719E0CA684968206804F0D9FA5021D0
:100CC000206806E0CA684968206804F0E2FA6021FA
:100CD000206804F0C5FACEE7CA684968206804F0C5
:100CE000C7FA40212068F4E7226801461046F0E781
:100CF000FEE700002DE9F05FFF4D04464FF48057FA
:100D0000102807D2002239462846FFF7E1FB3C2095
:100D1000FFF7CEFA4FF400680F2C0CD200224146A8
:100D20002846FFF7D5FB012239462846FFF7D0FBBE
:100D30003C20FFF7BDFA4FF480690E2C11D200223F
:100D400049462846FFF7C4FB012241462846FFF7E3
:100D5000BFFB012239462846FFF7BAFB3C20FFF7CC
:100D6000A7FA0D2C17D200224FF400712846FFF786
:100D7000AFFB012249462846FFF7AAFB0122414664
:100D80002846FFF7A5FB012239462846FFF7A0FBBE
:100D90003C20FFF78DFA0C2C1BD200222021284684
:100DA000FFF796FB012251022846FFF791FB012233
:100DB00049462846FFF78CFB012241462846FFF7AB
:100DC00087FB012239462846FFF782FB3C20FFF7CC
:100DD0006FFA0B2C21D200224FF480712846FFF7C6
:100DE00077FB012220212846FFF772FB01225102E6
:100DF0002846FFF76DFB012249462846FFF768FBAE
:100E0000012241462846FFF763FB01223946284666
:100E1000FFF75EFB3C20FFF74BFAB84E0A2C26D2B8
:100E200000224FF400413046FFF752FB012211022D
:100E30002846FFF74DFB012220212846FFF748FBFB
:100E4000012251022846FFF743FB0122494628466A
:100E5000FFF73EFB012241462846FFF739FB0122FE
:100E600039462846FFF734FB3C20FFF721FA092CCE
:100E70002BD200224FF480413046FFF729FB01229C
:100E8000D1033046FFF724FB012211022846FFF769
:100E90001FFB012220212846FFF71AFB01225102E5
:100EA0002846FFF715FB012249462846FFF710FBAD
:100EB000002241462846FFF70BFB0122394628460F
:100EC000FFF706FB3220FFF7F3F94FF4005B082C25
:100ED0002FD2002259463046FFF7FAFA0122910339
:100EE0003046FFF7F5FA0122D1033046FFF7F0FA5A
:100EF000012211022846FFF7EBFA012220212846A1
:100F0000FFF7E6FA012251022846FFF7E1FA012233
:100F100049462846FFF7DCFA002241462846FFF7FB
:100F2000D7FA012239462846FFF7D2FA3220FFF7D6
:100F3000BFF9072C34D2012259463046FFF7C8FAD0
:100F4000002239463046FFF7C3FA012291033046AA
:100F5000FFF7BEFA0122D1033046FFF7B9FA0122AA
:100F600011022846FFF7B4FA012220212846FFF794
:100F7000AFFA012251022846FFF7AAFA0122494698
:100F80002846FFF7A5FA002241462846FFF7A0FAB7
:100F9000012239462846FFF79BFA2820FFF788F9F7
:100FA000062C39D2002241463046FFF791FA012241
:100FB00039463046FFF78CFA012259463046FFF792
:100FC00087FA012291033046FFF782FA0122D1030A
:100FD0003046FFF77DFA012211022846FFF778FA22
:100FE000012220212846FFF773FA012251022846E8
:100FF000FFF76EFA012249462846FFF769FA0022F8
:1010000041462846FFF764FA012239462846FFF791
:101010005FFA2820FFF74CF9052C3ED20022494602
:101020003046FFF755FA012241463046FFF750FAA5
:10103000012239463046FFF74BFA01225946304625
:10104000FFF746FA012291033046FFF741FA0122E9
:10105000D1033046FFF73CFA012211022846FFF780
:1010600037FA012220212846FFF732FA01225102E5
:101070002846FFF72DFA012249462846FFF728FAAD
:10108000002241462846FFF723FA01223946284626
:10109000FFF71EFA1E20FFF70BF9042C49D200229D
:1010A00004213046FFF714FA012249463046FFF783
:1010B0000FFA012241463046FFF70AFA012239466B
:1010C0003046FFF705FA012259463046FFF700FA8D
:1010D000012291033046FFF7FBF90122D10330468C
:1010E000FFF7F6F9012211022846FFF7F1F9012274
:1010F0002021284604E0000000080140000C0140C7
:10110000FFF7E6F9012251022846FFF7E1F9012233
:1011100049462846FFF7DCF9002241462846FFF7FA
:10112000D7F9012239462846FFF7D2F91E20FFF7EA
:10113000BFF8032C48D2002202213046FFF7C8F93D
:10114000012204213046FFF7C3F901224946304607
:10115000FFF7BEF9012241463046FFF7B9F90122F7
:1011600039463046FFF7B4F9012259463046FFF7B9
:10117000AFF9012291033046FFF7AAF90122D1030A
:101180003046FFF7A5F9012211022846FFF7A0F922
:10119000012220212846FFF79BF90122510228460F
:1011A000FFF796F9012249462846FFF791F90022F8
:1011B00041462846FFF78CF9012239462846FFF7B9
:1011C00087F91E20FFF774F8022C4DD2002201216E
:1011D0003046FFF77DF9012202213046FFF778F90A
:1011E000012204213046FFF773F9012249463046B7
:1011F000FFF76EF9012241463046FFF769F90122F7
:1012000039463046FFF764F9012259463046FFF768
:101210005FF9012291033046FFF75AF90122D10309
:101220003046FFF755F9012211022846FFF750F921
:10123000012220212846FFF74BF9012251022846BE
:10124000FFF746F9012249462846FFF741F90022F7
:1012500041462846FFF73CF9012239462846FFF768
:1012600037F91E20FFF724F8002C52D100228021EC
:101270002846FFF72DF901220221B2463046FFF73A
:1012800027F9012204215046FFF722F901224C469A
:1012900049465046FFF71CF9012246464146504652
:1012A000FFF716F9012239465046FFF711F90122DE
:1012B00059465046FFF70CF9012291035046FFF7BB
:1012C00007F90122D1035046FFF702F9012211026A
:1012D0002846FFF7FDF8012220212846FFF7F8F8FD
:1012E000012251022846FFF7F3F801222146284641
:1012F000FFF7EEF8002231462846FFF7E9F8012211
:1013000039462846FFF7E4F8BDE8F05F1E20FEF7F7
:10131000CFBFBDE8F09F00002DE9F05FFF4E04460F
:101320004FF40048102807D2002241463046FFF70C
:10133000CFF83C20FEF7BCFFF94D0F2C0CD2002259
:1013400008212846FFF7C4F8012241463046FFF73E
:10135000BFF83C20FEF7ACFF0E2C11D2002210216A
:101360002846FFF7B5F8012208212846FFF7B0F814
:10137000012241463046FFF7ABF83C20FEF798FFCC
:101380000D2C16D2002220212846FFF7A1F80122B9
:1013900010212846FFF79CF8012208212846FFF774
:1013A00097F8012241463046FFF792F83C20FEF7BD
:1013B0007FFF0C2C1BD2002208213046FFF788F853
:1013C000012220212846FFF783F801221021284618
:1013D000FFF77EF8012208212846FFF779F801225D
:1013E00041463046FFF774F83C20FEF761FF0B2CB6
:1013F00020D2002240212846FFF76AF80122082166
:101400003046FFF765F8012220212846FFF760F8F3
:10141000012210212846FFF75BF801220821284607
:10142000FFF756F8012241463046FFF751F83C20BD
:10143000FEF73EFF0A2C25D2002280212846FFF726
:1014400047F8012240212846FFF742F801220821EF
:101450003046FFF73DF8012220212846FFF738F8F3
:10146000012210212846FFF733F8012208212846DF
:10147000FFF72EF8012241463046FFF729F83220C7
:10148000FEF716FF092C2BD200224FF4807128465C
:10149000FFF71EF8012280212846FFF719F80122E4
:1014A00040212846FFF714F8012208213046FFF7B3
:1014B0000FF8012220212846FFF70AF80122102107
:1014C0002846FFF705F8002208212846FFF700F814
:1014D000012241463046FEF7FBFF3220FEF7E8FED0
:1014E0004FF4007B082C2FD2002259462846FEF7E5
:1014F000EFFF012211022846FEF7EAFF01228021B8
:101500002846FEF7E5FF012240212846FEF7E0FFCE
:10151000012208213046FEF7DBFF01222021284668
:10152000FEF7D6FF002210212846FEF7D1FF012248
:1015300008212846FEF7CCFF012241463046FEF73F
:10154000C7FF3220FEF7B4FE764F4FF4005A072C47
:1015500034D2002251463846FEF7BAFF01225946DE
:101560002846FEF7B5FF012211022846FEF7B0FF1C
:10157000012280212846FEF7ABFF012240212846A8
:10158000FEF7A6FF012208213046FEF7A1FF002248
:1015900020212846FEF79CFF012210212846FEF755
:1015A00097FF012208212846FEF792FF01224146BB
:1015B0003046FEF78DFF2820FEF77AFE4FF4804973
:1015C000062C39D2002249463846FEF781FF012217
:1015D00051463846FEF77CFF012259462846FEF761
:1015E00077FF012211022846FEF772FF01228021B7
:1015F0002846FEF76DFF012240212846FEF768FFCE
:10160000002208213046FEF763FF012220212846F0
:10161000FEF75EFF012210212846FEF759FF012246
:1016200008212846FEF754FF012241463046FEF7C6
:101630004FFF2820FEF73CFE052C3ED200224146FB
:101640003846FEF745FF012249463846FEF740FF7F
:10165000012251463846FEF73BFF012259462846F3
:10166000FEF736FF012211022846FEF731FF012264
:1016700080212846FEF72CFF002240212846FEF755
:1016800027FF012208213046FEF722FF01222021F8
:101690002846FEF71DFF012210212846FEF718FFFD
:1016A000012208212846FEF713FF01224146304659
:1016B000FEF70EFF1E20FEF7FBFD042C4AD200228F
:1016C00002213046FEF704FF012241463846FEF76C
:1016D000FFFE012249463846FEF7FAFE0122514636
:1016E0003846FEF7F5FE012259462846FEF7F0FE81
:1016F000012211022846FEF7EBFE01228021284636
:10170000FEF7E6FE012240212846FEF7E1FE012217
:1017100008213046FEF7DCFE012205E0000801400A
:10172000000C01400010014020212846FEF7D0FEA9
:10173000012210212846FEF7CBFE0122082128466F
:10174000FEF7C6FE002241463046FEF7C1FE1E20CF
:10175000FEF7AEFD032C48D2002204213046FEF7EE
:10176000B7FE012202213046FEF7B2FE01224146B9
:101770003846FEF7ADFE012249463846FEF7A8FE80
:10178000012251463846FEF7A3FE0122594628465B
:10179000FEF79EFE012211022846FEF799FE012265
:1017A00080212846FEF794FE012240212846FEF7BC
:1017B0008FFE012208213046FEF78AFE01222021F9
:1017C0002846FEF785FE012210212846FEF780FEFE
:1017D000002208212846FEF77BFE012241463046C2
:1017E000FEF776FE1E20FEF763FD022C4DD200228E
:1017F00010213046FEF76CFE012204213046FEF730
:1018000067FE012202213046FEF762FE01224146B8
:101810003846FEF75DFE012249463846FEF758FE7F
:10182000012251463846FEF753FE0122594628460A
:10183000FEF74EFE012211022846FEF749FE012264
:1018400080212846FEF744FE012240212846FEF76B
:101850003FFE012208213046FEF73AFE01222021F8
:101860002846FEF735FE002210212846FEF730FEFE
:10187000012208212846FEF72BFE01224146304670
:10188000FEF726FE1E20FEF713FD002C55D1002288
:1018900040213046FEF71CFE012210213046FEF7A3
:1018A00017FE012204213046FEF712FE012202211A
:1018B0003046FEF70DFE0122444641463846FEF70B
:1018C00007FE012249463846FEF702FE0122514634
:1018D0003846FEF7FDFD012259462846FEF7F8FD81
:1018E000012211022846FEF7F3FD0122802128463D
:1018F000FEF7EEFD012240212846FEF7E9FD012218
:1019000008213046FEF7E4FD002220212846FEF79C
:10191000DFFD012210212846FEF7DAFD0122082111
:101920002846FEF7D5FD012221463046FEF7D0FDC0
:10193000BDE8F05F1E20FEF7BBBCBDE8F09F0000D5
:101940002DE9F05F6F4E4FF40054002221463046DF
:10195000FEF7BEFDDFF8B0A1251100222946504652
:10196000FEF7B6FD3220FEF7A3FC4FF4804B0022B9
:1019700059463046FEF7ACFD002261115046FEF795
:10198000A7FD3220FEF794FC0022A1003046FEF7AE
:101990009FFD002280215046FEF79AFD3220FEF77F
:1019A00087FC5A4E002202213046FEF791FD0022AC
:1019B00040215046FEF78CFD3220FEF779FC0022D4
:1019C00004213046FEF784FD002208213046FEF750
:1019D0007FFD3220FEF76CFC002210213046FEF71E
:1019E00077FD002220215046FEF772FD3220FEF7DF
:1019F0005FFC002240213046FEF76AFD00221021E4
:101A00005046FEF765FD3220FEF752FC0022802191
:101A10003046FEF75DFD002208215046FEF758FDD6
:101A20003220FEF745FC002201215046FEF750FD12
:101A30000022A1003046FEF74BFD3220FEF738FCB5
:101A4000002202215046FEF743FD6710002239466E
:101A50003046FEF73DFD3220FEF72AFC002204212D
:101A60005046FEF735FD4FF40068002241463046EF
:101A7000FEF72EFD3220FEF71BFC4FF4806900229A
:101A800049465046FEF724FD002249463046FEF7FF
:101A90001FFD3220FEF70CFC002241465046FEF7A7
:101AA00017FD002229463046FEF712FD3220FEF7D0
:101AB000FFFB002239465046FEF70AFD0022202196
:101AC0003046FEF705FD3220FEF7F2FB00222146EC
:101AD0005046FEF7FDFC002261113046FEF7F8FC8F
:101AE0003220FEF7E5FB002259465046FEF7F0FC97
:101AF0000022A1005046FEF7EBFCBDE8F05F32206B
:101B0000FEF7D6BB00100140000C01400008014068
:101B10002DE9F05F4FF4805400222146FE4D284607
:101B2000FEF7D6FC3220FEF7C3FB661000223146DA
:101B30002846FEF7CDFC3220FEF7BAFBA7100022A4
:101B400039462846FEF7C4FC3220FEF7B1FB4FF4BD
:101B50000078002241462846FEF7BAFC3220FEF704
:101B6000A7FB002220212846FEF7B2FC3220FEF718
:101B70009FFB4FF48079002249462846FEF7A8FCD7
:101B80003220FEF795FBDFF894B34FF4004A0022B1
:101B900051465846FEF79CFC3220FEF789FB002296
:101BA000A1005846FEF794FC3220FEF781FB00228C
:101BB00061005846FEF78CFC3220FEF779FB0022CC
:101BC00021465846FEF784FC3220FEF771FB0022C6
:101BD00031465846FEF77CFC3220FEF769FB0022B6
:101BE00039465846FEF774FC3220FEF761FB0022AE
:101BF00004215846FEF76CFC3220FEF759FB002208
:101C000002215846FEF764FC3220FEF751FB002209
:101C100001215846FEF75CFC3220FEF749FB00220A
:101C200080212846FEF754FC3220FEF741FB0022BB
:101C300040212846FEF74CFC3220FEF739FB0022FB
:101C400010212846FEF744FC3220FEF731FB00222B
:101C500004212846FEF73CFC3220FEF729FB002237
:101C600002212846FEF734FC3220FEF721FB002239
:101C70005146AB48FEF72CFC3220FEF719FB002240
:101C8000A100A748FEF724FC3220FEF711FB00223A
:101C90006100A348FEF71CFC3220FEF709FB00227E
:101CA00041465846FEF714FC3220FEF701FB0022A5
:101CB00049465846FEF70CFC3220FEF7F9FA00229E
:101CC00080215846FEF704FC3220FEF7F1FA00228C
:101CD00040215846FEF7FCFB3220FEF7E9FA0022CD
:101CE00008212846FEF7F4FB3220FEF7E1FA002235
:101CF00020215846FEF7ECFB3220FEF7D9FA0022ED
:101D000010215846FEF7E4FB3220FEF7D1FA0022FC
:101D100008215846FEF7DCFB3220FEF7C9FA002204
:101D200051462846FEF7D4FB6420FEF7C1FA012293
:101D300051462846FEF7CCFB3220FEF7B9FA0122C5
:101D400008215846FEF7C4FB3220FEF7B1FA012203
:101D500010215846FEF7BCFB3220FEF7A9FA0122FB
:101D600020215846FEF7B4FB3220FEF7A1FA0122EB
:101D700008212846FEF7ACFB3220FEF799FA012233
:101D800040215846FEF7A4FB3220FEF791FA0122CB
:101D900080215846FEF79CFB3220FEF789FA01228B
:101DA00049465846FEF794FB3220FEF781FA01229D
:101DB00041465846FEF78CFB3220FEF779FA0122A5
:101DC00051035748FEF784FB3220FEF771FA0122D7
:101DD00091035348FEF77CFB3220FEF769FA01229B
:101DE00051464F48FEF774FB3220FEF761FA01229C
:101DF00002212846FEF76CFB3220FEF759FA012239
:101E000004212846FEF764FB3220FEF751FA012236
:101E100010212846FEF75CFB3220FEF749FA01222A
:101E200040212846FEF754FB3220FEF741FA0122FA
:101E300080212846FEF74CFB3220FEF739FA0122BA
:101E400011465846FEF744FB3220FEF731FA0122D4
:101E500002215846FEF73CFB3220FEF729FA012208
:101E600004215846FEF734FB3220FEF721FA012206
:101E700039465846FEF72CFB3220FEF719FA0122AC
:101E800031465846FEF724FB3220FEF711FA0122B4
:101E900021465846FEF71CFB3220FEF709FA0122C4
:101EA00051035846FEF714FB3220FEF701FA0122D7
:101EB00091035846FEF70CFB3220FEF7F9F9012298
:101EC00051465846FEF704FB3220FEF7F1F9012295
:101ED00049462846FEF7FCFA3220FEF7E9F90122CE
:101EE00020212846FEF7F4FA3220FEF7E1F901221C
:101EF00041462846FEF7ECFA3220FEF7D9F90122D6
:101F000039462846FEF7E4FA3220FEF7D1F90122DD
:101F10003146284606E0000000080140000C014060
:101F200000100140FEF7D4FA3220FEF7C1F9012279
:101F300021462846FEF7CCFA6420FEF7B9F90022C4
:101F400051462846FEF7C4FA3220FEF7B1F90022C6
:101F500008215846FEF7BCFA3220FEF7A9F9002204
:101F600010215846FEF7B4FA3220FEF7A1F90022FC
:101F700020215846FEF7ACFA3220FEF799F90022EC
:101F800008212846FEF7A4FA3220FEF791F9002234
:101F900040215846FEF79CFA3220FEF789F90022CC
:101FA00080215846FEF794FA3220FEF781F900228C
:101FB00049465846FEF78CFA3220FEF779F900229E
:101FC00041465846FEF784FA3220FEF771F90022A6
:101FD0006100DC48FEF77CFA3220FEF769F9002246
:101FE000A100D848FEF774FA3220FEF761F900220A
:101FF0005146D448FEF76CFA3220FEF759F9002218
:1020000002212846FEF764FA3220FEF751F9002239
:1020100004212846FEF75CFA3220FEF749F9002237
:1020200010212846FEF754FA3220FEF741F900222B
:1020300040212846FEF74CFA3220FEF739F90022FB
:1020400080212846FEF744FA3220FEF731F90022BB
:1020500001215846FEF73CFA3220FEF729F900220A
:1020600002215846FEF734FA3220FEF721F9002209
:1020700004215846FEF72CFA3220FEF719F9002207
:1020800039465846FEF724FA3220FEF711F90022AD
:1020900031465846FEF71CFA3220FEF709F90022B5
:1020A00021465846FEF714FA3220FEF701F90022C5
:1020B00061005846FEF70CFA3220FEF7F9F80022CC
:1020C000A1005846FEF704FA3220FEF7F1F800228C
:1020D00051465846FEF7FCF93220FEF7E9F8002297
:1020E00049462846FEF7F4F93220FEF7E1F80022CF
:1020F00020212846FEF7ECF93220FEF7D9F800221D
:1021000041462846FEF7E4F93220FEF7D1F80022D6
:1021100039462846FEF7DCF93220FEF7C9F80022DE
:1021200031462846FEF7D4F93220FEF7C1F80022E6
:1021300021462846FEF7CCF96420FEF7B9F80122C3
:1021400021462846FEF7C4F93220FEF7B1F80122F5
:1021500031462846FEF7BCF93220FEF7A9F80122E5
:1021600039462846FEF7B4F93220FEF7A1F80122DD
:1021700041462846FEF7ACF93220FEF799F80122D5
:1021800020212846FEF7A4F93220FEF791F801221B
:1021900049462846FEF79CF93220FEF789F80122CD
:1021A00051465846FEF794F93220FEF781F8012295
:1021B00091035846FEF78CF93220FEF779F8012298
:1021C00051035846FEF784F93220FEF771F80122D8
:1021D00021465846FEF77CF93220FEF769F80122C5
:1021E00031465846FEF774F93220FEF761F80122B5
:1021F00039465846FEF76CF93220FEF759F80122AD
:1022000004215846FEF764F93220FEF751F8012206
:1022100002215846FEF75CF93220FEF749F8012208
:1022200011465846FEF754F93220FEF741F80122D4
:1022300080212846FEF74CF93220FEF739F80122BA
:1022400040212846FEF744F93220FEF731F80122FA
:1022500010212846FEF73CF93220FEF729F801222A
:1022600004212846FEF734F93220FEF721F8012236
:1022700002212846FEF72CF93220FEF719F8012238
:1022800051463048FEF724F93220FEF711F80122BA
:1022900091032C48FEF71CF93220FEF709F80122C1
:1022A00051032848FEF714F93220FEF701F8012205
:1022B00041465846FEF70CF93220FDF7F9FF01229E
:1022C00049465846FEF704F93220FDF7F1FF012296
:1022D00080215846FEF7FCF83220FDF7E9FF012285
:1022E00040215846FEF7F4F83220FDF7E1FF0122C5
:1022F00008212846FEF7ECF83220FDF7D9FF01222D
:1023000020215846FEF7E4F83220FDF7D1FF0122E4
:1023100010215846FEF7DCF83220FDF7C9FF0122F4
:1023200008215846FEF7D4F83220FDF7C1FF0122FC
:1023300051462846FEF7CCF8BDE8F05F6420FDF773
:10234000B7BF0000001001402DE9F04F85B0002418
:1023500032480094019402940394816941F0100181
:102360008161816901F010010491816941F00401EA
:102370008161816901F004010491816941F00801E2
:1023800081618069DFF8989000F008004FF46045A3
:102390000490002229464846FEF79AF8DFF884A008
:1023A00049F6FE77002239465046FEF791F8DFF8ED
:1023B00078B04FF6FF78002241465846FEF788F87D
:1023C0000095022601250396CDE901546946484649
:1023D000FDF78EFF15480095CDE90104694650468A
:1023E000FDF786FF00970396CDE9015469465046F4
:1023F000FDF77EFFCDF800800396CDE901546946D4
:102400005846FDF775FF002201210620FEF7D2F89D
:102410000620FEF7C1F805B0BDE8F08F00100240BD
:102420000010014000080140000C01400000211094
:1024300010B586B0002417480094019402940394C8
:1024400004941349059401600121C0E90114082195
:10245000C0E9031444618461FEF772FB08B172B6EF
:10246000FEE74FF48050009069460A48FEF7D2FB21
:1024700008B172B6FEE7049404A906480594FEF775
:102480002BFB002801D072B6FEE706B010BD00009D
:10249000002C014020000020FEE700002DE9F05F45
:1024A000DFF8E4A3F94EFA4D00274FF4007B4FF418
:1024B00080784FF40049F74CA07808B101287CD10E
:1024C000D4E90201401C41F100010A22821A71F193
:1024D0000002C4E9020129D2012249463046FDF733
:1024E000F7FF0121084601F087FE02211E2001F0BE
:1024F00083FE0321462001F07FFE0022594630462C
:10250000FDF7E6FF012211462846FDF7E1FF102105
:10251000012001F071FE11211E2001F06DFE12213B
:10252000462001F069FE0022042132E01422821AC2
:1025300071F100022FD20022D0F10A038A412AD27F
:10254000012211033046FDF7C3FF0221012001F0F3
:1025500053FE03211E2001F04FFE0421462001F00E
:102560004BFE002220213046FDF7B2FF01228021E0
:102570003046FDF7ADFF1121012001F03DFE122193
:102580001E2001F039FE1321462001F035FE002205
:10259000022130460BE11E22821A71F1000230D274
:1025A0000022D0F114038A412BD20122D1023046FD
:1025B000FDF78EFF0321012000E0FCE301F01CFE8B
:1025C00004211E2001F018FE0521462001F014FE12
:1025D000002241463046FDF77BFF01224021304674
:1025E000FDF776FF1221012001F006FE13211E20C7
:1025F00001F002FE1421462001F0FEFD00224946B2
:1026000033E02822821A71F1000230D20022D0F188
:102610001E038A412BD2012291023046FDF758FF5A
:102620000421012001F0E8FD05211E2001F0E4FD58
:102630000621462001F0E0FD002249462846FDF72C
:1026400047FF012210213046FDF742FF13210120F0
:1026500001F0D2FD14211E2001F0CEFD15214620EF
:1026600001F0CAFD00224FF4804150469FE0322223
:10267000821A71F1000230D20022D0F128038A417F
:102680002BD2012259463046FDF722FF05210120B9
:1026900001F0B2FD06211E2001F0AEFD072146200B
:1026A00001F0AAFD00224FF480412846FDF710FFFB
:1026B000012204213046FDF70BFF1421012001F017
:1026C0009BFD15211E2001F097FD1621462001F0EB
:1026D00093FD00224FF40051C7E73C22821A71F1AA
:1026E00000022FD20022D0F132038A412AD20122E5
:1026F00020213046FDF7ECFE0621012001F07CFD93
:1027000007211E2001F078FD0821462001F074FD0C
:1027100000224FF400512846FDF7DAFE0122022183
:102720003046FDF7D5FE1521012001F065FD16218B
:102730001E2001F061FD1721462001F05DFD002201
:10274000594633E05022821A71F1000232D200223F
:10275000D0F146038A412DD2012241463046FDF791
:10276000B7FE0721012001F047FD08211E2001F0DE
:1027700043FD0921462001F03FFD00224FF4805126
:102780002846FDF7A5FE012249465046FDF7A0FE6A
:102790001621012001F030FD17211E2001F02CFD33
:1027A0001821462001F028FD002241462846FDF769
:1027B0008FFEF4E35A22821A71F100022FD2002216
:1027C000D0F150038A412AD2012249462846FDF71A
:1027D0007FFE0821012001F00FFD09211E2001F0DC
:1027E0000BFD0A21462001F007FD00224FF4006195
:1027F0002846FDF76DFE012291035046FDF768FE65
:102800001721012001F0F8FC18211E2001F0F4FC32
:102810001921462001F0F0FC00228021C6E7642245
:10282000821A71F1000237D20022D0F15A038A4194
:1028300032D2012291032846FDF74AFE09210120E8
:1028400001F0DAFC0A211E2001F0D6FC0B21462003
:1028500001F0D2FC00224FF480612846FDF738FEDB
:10286000012251035046FDF733FE1821012001F0EB
:10287000C3FC19211E2001F0BFFC1A21462001F0E3
:10288000BBFC0022402191E70010014000080140FC
:10289000000C0140000000206E22821A71F100023B
:1028A0002ED20022D0F164038A4129D201225103A1
:1028B0002846FDF70DFE0A21012001F09DFC0B21A9
:1028C0001E2001F099FC0C21462001F095FC00220D
:1028D00004212846FDF7FCFD012259462846FDF754
:1028E000F7FD1921012001F087FC1A211E2001F0BB
:1028F00083FC1B21462001F07FFC0022082148E6D2
:102900007822821A71F100022ED20022D0F16E03D9
:102910008A4129D2012211032846FDF7D9FD0B2156
:10292000012001F069FC0C211E2001F065FC0D2145
:10293000462001F061FC002202212846FDF7C8FD77
:10294000012241462846FDF7C3FD1A21012001F06E
:1029500053FC1B211E2001F04FFC1C21462001F0DE
:102960004BFC0022202121E78222821A71F1000211
:102970002ED20022D0F178038A4129D20122D1023D
:102980002846FDF7A5FD0C21012001F035FC0D21A5
:102990001E2001F031FC0E21462001F02DFC00220A
:1029A00001212846FDF794FD012280212846FDF7EC
:1029B0008FFD1B21012001F01FFC1C211E2001F0B6
:1029C0001BFC1D21462001F017FC00221021EDE622
:1029D0008C22821A71F100022ED20022D0F18203E1
:1029E0008A4129D2012291022846FDF771FD0D216D
:1029F000012001F001FC0E211E2001F0FDFB0F2142
:102A0000462001F0F9FB002280213046FDF760FDF1
:102A1000012240212846FDF75BFD1C21012001F029
:102A2000EBFB1D211E2001F0E7FB1E21462001F0DB
:102A3000E3FB00220821B9E69622821A71F1000216
:102A40002ED20022D0F18C038A4129D20122042106
:102A50002846FDF73DFD0E21012001F0CDFB0F21A1
:102A60001E2001F0C9FB1021462001F0C5FB002209
:102A700040213046FDF72CFD012208213046FDF7AC
:102A800027FD1D21012001F0B7FB1E21084601F0A2
:102A9000B3FB1F21462001F0AFFB0022494678E539
:102AA000A022821A71F100022FD20022D0F19603E7
:102AB0008A412AD2012202212846FDF709FD0F2171
:102AC000012001F099FB10211E2001F095FB11213E
:102AD000462001F091FB002210213046FDF7F8FC62
:102AE000012220212846FDF7F3FC1E21012001F0E0
:102AF00083FB1F211E2001F07FFB2021462001F0D7
:102B00007BFB00224FF4805143E5AA22821A71F127
:102B100000022FD20022D0F1A0038A412AD2012242
:102B200011462846FDF7D4FC1021012001F064FB7A
:102B300011211E2001F060FB1221462001F05CFBF8
:102B4000002204213046FDF7C3FC01221021284653
:102B5000FDF7BEFC1F21012001F04EFB20211E20AD
:102B600001F04AFB0121462001F046FB00224FF410
:102B700000610EE5B422821A71F100022FD2002208
:102B8000D0F1AA038A412AD2012280213046FDF7E2
:102B90009FFC1121012001F02FFB12211E2001F0CA
:102BA0002BFB1321462001F027FB00220221304697
:102BB000FDF78EFC012208212846FDF789FC202123
:102BC000012001F019FB01211E2001F015FB02215B
:102BD000462001F011FB00224FF48061D9E4BE22AF
:102BE000821A71F100022ED20022D0F1B4038A4180
:102BF00029D2012240213046FDF76AFC1221012032
:102C000001F0FAFA13211E2001F0F6FA14214620F1
:102C100001F0F2FA002249465046FDF759FC012224
:102C200049463046FDF754FC0121084601F0E4FA1C
:102C300002211E2001F0E0FA0321462001F0DCFA17
:102C400000225946A5E4C822821A71F100022FD24F
:102C50000022D0F1BE038A412AD20122102130463F
:102C6000FDF736FC1321012001F0C6FA14211E20C5
:102C700001F0C2FA1521462001F0BEFA00224FF4FD
:102C800080415046FDF724FC012211033046FDF738
:102C90001FFC0221012001F0AFFA03211E2001F0E8
:102CA000ABFA0421462001F0A7FA0022202170E4AB
:102CB000D222821A71F100022FD20022D0F1C80371
:102CC0008A412AD2012204213046FDF701FC142159
:102CD000012001F091FA15211E2001F08DFA162134
:102CE000462001F089FA00224FF400515046FDF7CA
:102CF000EFFB0122D1023046FDF7EAFB0321012060
:102D000001F07AFA04211E2001F076FA052146200E
:102D100001F072FA002241463BE4DC22821A71F192
:102D200000022ED20022D0F1D2038A4129D2012200
:102D300002213046FDF7CCFB1521012001F05CFAA1
:102D400016211E2001F058FA1721462001F054FAEE
:102D5000002259462846FDF7BBFB0122910230466E
:102D6000FDF7B6FB0421012001F046FA05211E20E3
:102D700001F042FA0621462001F03EFA00224946BF
:102D800014E5E622821A71F1000231D20022D0F15C
:102D9000DC038A412CD2012249465046FDF798FBBC
:102DA0001621012001F028FA17211E2001F024FA33
:102DB0001821462000E048E201F01EFA00224146B8
:102DC0002846FDF785FB012259463046FDF780FB7A
:102DD0000521012001F010FA06211E2001F00CFA55
:102DE0000721462001F008FA00224FF48041DDE47B
:102DF000F022821A71F100022FD20022D0F1E603F4
:102E00008A412AD2012291035046FDF761FB172126
:102E1000012001F0F1F918211E2001F0EDF919212E
:102E2000462001F0E9F9002280212846FDF750FBF9
:102E3000012220213046FDF74BFB0621012001F045
:102E4000DBF907211E2001F0D7F90821462001F007
:102E5000D3F900224FF40051A8E4FA22821A71F14A
:102E600000022FD20022D0F1DC038A412AD20122B3
:102E700051035046FDF72CFB1821012001F0BCF94D
:102E800019211E2001F0B8F91A21462001F0B4F9E9
:102E9000002240212846FDF71BFB01224146304617
:102EA000FDF716FB0721012001F0A6F908211E20DD
:102EB00001F0A2F90921462001F09EF900224FF409
:102EC000805173E44FF48272821A71F100022FD2A2
:102ED0000022D0F1FA038A412AD20122594628461B
:102EE000FDF7F6FA1921012001F086F91A211E20BA
:102EF00001F082F91B21462001F07EF90022082111
:102F00003046FDF7E5FA012249462846FDF7E0FA8A
:102F10000821012001F070F909211E2001F06CF94F
:102F20000A21462001F068F900224FF400613DE4D7
:102F30004FF48772821A71F1000231D24FF482731A
:102F400000221B1A8A412BD2012241462846FDF756
:102F5000BFFA1A21012001F04FF91B211E2001F0B8
:102F60004BF91C21462001F047F900222021284678
:102F7000FDF7AEFA012291032846FDF7A9FA0921CF
:102F8000012001F039F90A211E2001F035F90B2149
:102F9000462001F031F900224FF4806106E451E14E
:102FA0004FF48C72821A71F100022FD24FF48773A2
:102FB00000221B1A8A4129D2012280212846FDF7CE
:102FC00087FA1B21012001F017F91C211E2001F0B6
:102FD00013F91D21462001F00FF900221021284687
:102FE000FDF776FA012251032846FDF771FA0A210E
:102FF000012001F001F90B211E2001F0FDF80C2148
:10300000462001F0F9F80022042107E44FF4917200
:10301000821A71F100022FD24FF48C7300221B1A16
:103020008A4129D2012240212846FDF751FA1C216C
:10303000012001F0E1F81D211E2001F0DDF81E2124
:10304000462001F0D9F8002208212846FDF740FA71
:10305000012211032846FDF73BFA0B21012001F064
:10306000CBF80C211E2001F0C7F80D21462001F0FD
:10307000C3F80022022106E44FF49672821A71F11D
:1030800000022FD24FF4917300221B1A8A4129D2D9
:10309000012208213046FDF71BFA1D21012001F015
:1030A000ABF81E21084601F0A7F81F21462001F0C9
:1030B000A3F8002249463046FDF70AFA0122D10260
:1030C0002846FDF705FA0C21012001F095F80D21A5
:1030D0001E2001F091F80E21462001F08DF800220B
:1030E000012140E44FF49B72821A71F1000230D248
:1030F0004FF4967300221B1A8A412AD20122202102
:103100002846FDF7E5F91E21012001F075F81F2181
:103110001E2001F071F82021462001F06DF80022F8
:103120004FF480513046FDF7D3F901229102284631
:10313000FDF7CEF90D21012001F05EF80E211E20D1
:1031400001F05AF80F21462001F056F800228021A4
:10315000A5E44FF4A072821A71F1000230D24FF44C
:103160009B7300221B1A8A412AD201221021284671
:10317000FDF7AEF91F21012001F03EF820211E20AD
:1031800001F03AF80121462001F036F800224FF410
:1031900000613046FDF79CF9012204212846FDF725
:1031A00097F90E21012001F027F80F211E2001F0D0
:1031B00023F81021462001F01FF8002240216EE480
:1031C0004FF4A572821A71F1000230D24FF4A0734D
:1031D00000221B1A8A412AD2012208212846FDF723
:1031E00077F92021012001F007F801211E2001F0CC
:1031F00003F80221462000F0FFFF00224FF4806117
:103200003046FDF765F9012202212846FDF760F9F5
:103210000F21012000F0F0FF10211E2000F0ECFF34
:103220001121462000F0E8FF0022102137E44FF47E
:10323000A5730022181A8A4104D20020C4E90200B2
:103240007F1CFFB2042FFFF436A9002500F0BEF961
:10325000A078022803D06D1CEDB2052DF6D3BDE891
:10326000F09F000070B51F4C0026A07808B102281E
:1032700036D100253220FDF71BF810E06D1CADB2F1
:103280000A2D04D1632802D2401CA0800025207999
:1032900001F090F9A088632801D102F01DF8A08800
:1032A0006328EBD33220FDF703F86420A0806D1C67
:1032B000ADB20A2D05D10004000C02D0401EA08042
:1032C0000025207901F076F9A0880028EFD102F0DE
:1032D00009FCA0880028EAD1761CF6B2042EC4D3DB
:1032E00070BD00000000002070B5084D0024A878D3
:1032F00008B1032809D12046FEF70EF82046FDF755
:10330000F9FC641CE4B2102CF1D970BD000000205F
:1033100070B502F0E7FB104C0025A07808B1042836
:1033200008D102F091F8A078052803D06D1CEDB209
:10333000032DF2D35FF0000510F0FF0001D0042848
:1033400008D100F043F9A078052803D06D1CEDB238
:103350000A2DF1D370BD0000000000202DE9F05FC0
:1033600002F0C0FBFEF7ECFA02F0BCFB804D00243B
:10337000A87808B1052805D1FEF7CAFB641CE4B2A1
:10338000022CF5D3DFF8EC814FF4004400222146F3
:103390004046FDF79DF84FF48059002249464046CB
:1033A000FDF796F83220FCF783FFDFF8CCA100226E
:1033B00008215046FDF78CF84FF4006B0022594667
:1033C0004046FDF785F83220FCF772FF00221021FD
:1033D0005046FDF77DF8002261114046FDF778F870
:1033E0003220FCF765FF002220215046FDF770F8DF
:1033F000A611002231464046FDF76AF83220FCF75C
:1034000057FF002208214046FDF762F800222021E4
:103410004046FDF75DF83220FCF74AFF00224021CC
:103420005046FDF755F8E711002239464046FDF7B2
:103430004FF83220FCF73CFF002280215046FDF778
:1034400047F8002221465046FDF742F83220FCF7AB
:103450002FFF002239465046FDF73AF86710002248
:1034600039465046FDF734F83220FCF721FF0022A0
:1034700031465046FDF72CF8A61000223146504642
:10348000FDF726F83220FCF713FF31463B4E0022B1
:103490003046FDF71DF8002249465046FDF718F862
:1034A0003220FCF705FF002239463046FDF710F8C0
:1034B000002259465046FDF70BF83220FCF7F8FE83
:1034C000002221463046FDF703F8002261115046E4
:1034D000FCF7FEFF3220FCF7EBFE00220221404603
:1034E000FCF7F6FF002204215046FCF7F1FF3220E2
:1034F000FCF7DEFE002204214046FCF7E9FF002233
:1035000002215046FCF7E4FF3220FCF7D1FE0022F6
:1035100010214046FCF7DCFF002201215046FCF759
:10352000D7FF3220FCF7C4FE002240214046FCF7C2
:10353000CFFF002280214046FCF7CAFF3220FCF773
:10354000B7FE0024A87808B105280DD101F0C4FE0B
:103550003220FCF7ADFE02F0C5FA3220FCF7A8FEDF
:10356000641CE4B2042CEDD30020A870BDE8F09FE9
:103570000000002000080140000C01400010014044
:1035800070B5064D0024A87808B1062805D100F0D2
:10359000D9FA641CE4B2042CF5D370BD00000020FD
:1035A00070B5084D0024A87808B1082809D1204634
:1035B00001F002FB204601F019F8641CE4B2102C63
:1035C000F1D970BD00000020FEE700002DE9F05F9A
:1035D000AA4D4FF48054002221462846FCF778FF7C
:1035E000A610002231462846FCF772FF0022202157
:1035F0002846FCF76DFFDFF88882E7000022394695
:103600004046FCF765FF4FF400590022494640460A
:10361000FCF75EFF4FF4006A002251464046FCF77B
:1036200057FF002204214046FCF752FF00220121EF
:103630004046FCF74DFF002240212846FCF748FF9A
:10364000002204212846FCF743FFDFF838B20022AD
:1036500039465846FCF73CFF002249465846FCF7DD
:1036600037FF002221114046FCF732FF00224021A3
:103670004046FCF72DFF002220214046FCF728FFA2
:10368000002208214046FCF723FF0122514628462C
:10369000FCF71EFF012251022846FCF719FF012208
:1036A00011022846FCF714FF012291034046FCF763
:1036B0000FFF012221464046FCF70AFF0122314656
:1036C0004046FCF705FF012202214046FCF700FFBF
:1036D000012280212846FCF7FBFE0122102128460A
:1036E000FCF7F6FE012202212846FCF7F1FE01223A
:1036F00091035846FCF7ECFE012251024046FCF7CC
:10370000E7FE012280214046FCF7E2FE012208216B
:103710002846FCF7DDFE012210214046FCF7D8FECA
:10372000012239462846FCF7D3FE6420FCF7C0FD91
:10373000002251462846FCF7CBFE0022E110284625
:10374000FCF7C6FE002221112846FCF7C1FE00222C
:10375000A1004046FCF7BCFE002221464046FCF793
:10376000B7FE002231464046FCF7B2FE002202219D
:103770004046FCF7ADFE002280212846FCF7A8FE5B
:10378000002210212846FCF7A3FE00220221284631
:10379000FCF79EFE0022A1005846FCF799FE00228D
:1037A000E1104046FCF794FE002280214046FCF7E1
:1037B0008FFE002208212846FCF78AFE00221021F5
:1037C0004046FCF785FE002239462846FCF780FE7D
:1037D000012221462846FCF77BFE0122314628467D
:1037E000FCF776FE012220212846FCF771FE01221B
:1037F00039464046FCF76CFE012249464046FCF73C
:1038000067FE012251464046FCF762FE0122042178
:103810004046FCF75DFE012211464046FCF758FE8B
:10382000012240212846FCF753FE012204212846AC
:10383000FCF74EFE012239465846FCF749FE0122AC
:1038400049465846FCF744FE012211024046FCF767
:103850003FFE012240214046FCF73AFE0122202192
:103860004046FCF735FE012208214046FCF730FEB9
:10387000BDE8F05F6420FCF71BBD000000080140BC
:10388000000C0140001001402DE9F05FA94C002020
:10389000A94EC4E90200A94FDFF8A48205464FF4FF
:1038A0000049A07808B107287ED1D4E90201401C64
:1038B00041F10001C4E9020180F03200084303D164
:1038C000C4E902006D1CEDB2E8074FF000026CD0B5
:1038D0004FF400613046FCF7FBFD4FF4007A002204
:1038E00051463046FCF7F4FD00224FF4807130461B
:1038F000FCF7EEFD4FF4804B002259463846FCF7AA
:10390000E7FD00224FF480513846FCF7E1FD00222C
:103910004FF480613846FCF7DBFD00220221384677
:10392000FCF7D6FD002280213046FCF7D1FD0022B5
:1039300010213046FCF7CCFD002202213046FCF776
:10394000C7FD002259464046FCF7C2FD0022514601
:103950003846FCF7BDFD002280213846FCF7B8FD53
:10396000002208213046FCF7B3FD00221021384622
:10397000FCF7AEFD002249463046FCF7A9FD0121C7
:103980001E2000F039FC03211E2000F035FC05212B
:103990001E2000F031FC07211E2000F02DFC092123
:1039A0001E2000F029FC01E02FE030E00B211E205A
:1039B00000F022FC0D211E2000F01EFC0F211E2015
:1039C00000F01AFC11211E2000F016FC13211E200D
:1039D00000F012FC15211E2000F00EFC17211E2005
:1039E00000F00AFC19211E2000F006FC1B211E20FD
:1039F00000F002FC1D211E2000F0FEFB1F211E20F6
:103A000000F0FAFB082DFFF44CAFBDE8F09F4FF437
:103A100080513046FCF75CFD00224FF48061304657
:103A2000FCF756FD002220213046FCF751FD002214
:103A300049463846FCF74CFD4FF4005A00225146E7
:103A40003846FCF745FD00224FF400613846FCF78C
:103A50003FFD002204213846FCF73AFD00220121F7
:103A60003846FCF735FD002240213046FCF730FD9A
:103A7000002204213046FCF72BFD00224946404637
:103A8000FCF726FD002251464046FCF721FD0022AE
:103A90004FF480713846FCF71BFD00224021384668
:103AA000FCF716FD002220213846FCF711FD00220C
:103AB00008213846FCF70CFD02211E2000F09CFB7B
:103AC00004211E2000F098FB06211E2000F094FB2C
:103AD00008211E2000F090FB0A211E2000F08CFB24
:103AE0000C211E2000F088FB0E211E2000F084FB1C
:103AF00010211E2000F080FB12211E2000F07CFB14
:103B000014211E2000F078FB16211E2000F074FB0B
:103B100018211E2000F070FB1A211E2000F06CFB03
:103B20001C211E2000F068FB1E21084600F064FBEB
:103B3000202164E70000002000080140000C014043
:103B4000001001402DE9F05F4FF4004400222146AF
:103B5000FE4D2846FCF7BCFC002280212846FCF7DD
:103B6000B7FC4620FCF7A4FBF94E002208213046A2
:103B7000FCF7AEFC002201213046FCF7A9FC4620F0
:103B8000FCF796FB002210213046FCF7A1FC002236
:103B900002213046FCF79CFC4620FCF789FB002202
:103BA00020213046FCF794FC002204213046FCF72B
:103BB0008FFC4620FCF77CFB002208212846FCF7FE
:103BC00087FC6711002239463046FCF781FC46200D
:103BD000FCF76EFB002240213046FCF779FC4FF4E5
:103BE0000068002241463046FCF772FC4620FCF794
:103BF0005FFB002280213046FCF76AFC4FF48059BD
:103C0000002249463046FCF763FC4620FCF750FB97
:103C10004FF4807A002251463046FCF759FC4FF4AD
:103C2000005B002259463046FCF752FC4620FCF768
:103C30003FFB0022A1113046FCF74AFC0022611034
:103C40003046FCF745FC4620FCF732FB0022594683
:103C5000C048FCF73DFC002221463046FCF738FC0A
:103C60004620FCF725FB00226110BA48FCF730FC27
:103C7000002251462846FCF72BFC4620FCF718FB97
:103C800000222146B348FCF723FC002220212846CD
:103C9000FCF71EFC4620FCF70BFB00220221284605
:103CA000FCF716FC0022A1112846FCF711FC462067
:103CB000FCF7FEFA002204212846FCF709FC00224A
:103CC00039462846FCF704FC4620FCF7F1FA0022AE
:103CD00010212846FCF7FCFB002241462846FCF751
:103CE000F7FB4620FCF7E4FA002240212846FCF7C7
:103CF000EFFB002249462846FCF7EAFB6420FCF76C
:103D0000D7FA012240212846FCF7E2FB012249466E
:103D10002846FCF7DDFB4620FCF7CAFA01221021F9
:103D20002846FCF7D5FB012241462846FCF7D0FB8C
:103D30004620FCF7BDFA012204212846FCF7C8FB07
:103D4000012239462846FCF7C3FB4620FCF7B0FAAF
:103D5000012202212846FCF7BBFB01225102284622
:103D6000FCF7B6FB4620FCF7A3FA0122214679486E
:103D7000FCF7AEFB012220212846FCF7A9FB4620D8
:103D8000FCF796FA012291037248FCF7A1FB01228D
:103D900051462846FCF79CFB4620FCF789FA012295
:103DA00059466C48FCF794FB012221463046FCF74B
:103DB0008FFB4620FCF77CFA012251023046FCF7CB
:103DC00087FB012291033046FCF782FB4620FCF77B
:103DD0006FFA012251463046FCF77AFB0122594620
:103DE0003046FCF775FB4620FCF762FA0122802181
:103DF0003046FCF76DFB012249463046FCF768FB74
:103E00004620FCF755FA012240213046FCF760FBC2
:103E1000012241463046FCF75BFB4620FCF748FA9E
:103E2000012208212846FCF753FB0122394630467F
:103E3000FCF74EFB4620FCF73BFA012220213046DE
:103E4000FCF746FB012204213046FCF741FB4620EB
:103E5000FCF72EFA012210213046FCF739FB012233
:103E600002213046FCF734FB4620FCF721FA012200
:103E700008213046FCF72CFB012211463046FCF7A6
:103E800027FB4620FCF714FA012221462846FCF7BE
:103E90001FFB012280212846FCF71AFB4620FCF775
:103EA00007FA002249462846FCF712FB002240216F
:103EB0002846FCF70DFB4620FCF7FAF900224146A4
:103EC0002846FCF705FB002210212846FCF700FBE2
:103ED0004620FCF7EDF9002239462846FCF7F8FAAF
:103EE000002204212846FCF7F3FA4620FCF7E0F90B
:103EF0000022A1112846FCF7EBFA002202212846F5
:103F0000FCF7E6FA4620FCF7D3F9002220212846E8
:103F1000FCF7DEFA002221460E48FCF7D9FA4620CB
:103F2000FCF7C6F9002251462846FCF7D1FA0022D8
:103F300061100848FCF7CCFA4620FCF7B9F90022DA
:103F400021463046FCF7C4FA002205E00008014093
:103F5000000C0140001001405946A648FCF7B8FA91
:103F60004620FCF7A5F9002261103046FCF7B0FAB4
:103F70000022A1113046FCF7ABFA4620FCF798F975
:103F8000002259463046FCF7A3FA0022514630463B
:103F9000FCF79EFA4620FCF78BF900224946304692
:103FA000FCF796FA002280213046FCF791FA462071
:103FB000FCF77EF9002241463046FCF789FA0022E0
:103FC00040213046FCF784FA4620FCF771F90022C4
:103FD00039463046FCF77CFA002208212846FCF7D7
:103FE00077FA4620FCF764F9002204213046FCF7FA
:103FF0006FFA002208212846FCF76AFA4620FCF7EF
:1040000057F9002202213046FCF762FA0022102103
:104010003046FCF75DFA4620FCF74AF90022012100
:104020003046FCF755FA002208213046FCF750FADA
:104030004620FCF73DF9002280212846FCF748FA8B
:10404000002221462846FCF743FA6420FCF730F9A9
:10405000012221462846FCF73BFA0122802128460E
:10406000FCF736FA4620FCF723F9012208213046F6
:10407000FCF72EFA012211463046FCF729FA4620B9
:10408000FCF716F9012210213046FCF721FA012233
:1040900002213046FCF71CFA4620FCF709F9012200
:1040A00020213046FCF714FA012204213046FCF7A7
:1040B0000FFA4620FCF7FCF8012208212846FCF7FD
:1040C00007FA012239463046FCF702FA4620FCF78F
:1040D000EFF8012240213046FCF7FAF9012241466F
:1040E0003046FCF7F5F94620FCF7E2F80122802182
:1040F0003046FCF7EDF9012249463046FCF7E8F975
:104100004620FCF7D5F8012251463046FCF7E0F98D
:10411000012259463046FCF7DBF94620FCF7C8F887
:10412000012251023046FCF7D3F9012291033046B7
:10413000FCF7CEF94620FCF7BBF8012259462D4882
:10414000FCF7C6F9012221463046FCF7C1F94620AA
:10415000FCF7AEF8012291032648FCF7B9F90122D9
:1041600051462846FCF7B4F94620FCF7A1F8012295
:1041700021462048FCF7ACF9012220212846FCF713
:10418000A7F94620FCF794F8012202212846FCF703
:104190009FF9012251022846FCF79AF94620FCF7C4
:1041A00087F8012204212846FCF792F901223946BA
:1041B0002846FCF78DF94620FCF77AF801221021F9
:1041C0002846FCF785F9012241462846FCF780F98C
:1041D0004620FCF76DF8012240212846FCF778F9CB
:1041E000012249462846FCF773F9BDE8F05F6420D8
:1041F000FCF75EB8001001402DE9F05F64225043E7
:10420000B0FBF2F0E64CC0B2E64E2070C0F16400A4
:1042100060704FF48058012956D04FF4006902298C
:104220005DD04FF4806A032965D04FF4007B0429E8
:104230006CD005297ED0B315062973D0DF01DA4D85
:10424000072970D04FF4804C08296DD058010929F6
:104250006BD00A296AD00B2969D00C2968D00D29A6
:1042600067D00E2971D00F2970D010296FD0112975
:104270006ED012296DD013296CD014296BD0DFF8C1
:104280002C83152968D0162967D0172972D01829D0
:1042900071D0192970D01A296FD01B296ED01C2912
:1042A0006DD01D296CD01E296BD01F296AD0202902
:1042B00069D1002239463046FCF70AF9207801F02E
:1042C000C9FB0122394614E0002241463046FCF782
:1042D000FFF8207801F0BEFB0122414609E00022F0
:1042E00049463046FCF7F4F8207801F0B3FB012290
:1042F00049463046E6E0002251463046FCF7E8F8F1
:10430000207801F0A7FB01225146F2E7002259462E
:104310003046FCF7DDF8207801F09CFB012259467D
:10432000E7E707E01AE02FE039E03EE041E04BE04C
:1043300055E05FE0002220213046FCF7C9F82078E4
:1043400001F088FB01222021D3E75EE068E072E003
:104350007CE086E090E09AE0A4E0AEE000221D461A
:1043600019463046FCF7B4F8207801F073FB0122BF
:104370002946BEE7ADE0B8E0C2E0CDE0D7E0E1E03D
:10438000EBE0F5E0FFE009E1002239462846FCF7C2
:104390009FF8207801F05EFB0122394603E00022FD
:1043A00066466146AFE028468CE00022064601469C
:1043B000A9E0002241462846FCF78AF8207801F05F
:1043C00049FB01224146EEE7002249462846FCF718
:1043D0007FF8207801F03EFB01224946E3E7002206
:1043E00051462846FCF774F8207801F033FB01228F
:1043F0005146D8E7002204212846FCF769F82078C6
:1044000001F028FB01220421CDE7002202212846E9
:10441000FCF75EF8207801F01DFB01220221C2E7C3
:10442000002201212846FCF753F8207801F012FB06
:1044300001221146B7E7002280213046FCF748F8F8
:10444000207801F007FB0122802152E70022402161
:104450003046FCF73DF8207801F0FCFA01224021BB
:1044600047E7002210213046FCF732F8207801F0AF
:10447000F1FA012210213CE7002204213046FCF72A
:1044800027F8207801F0E6FA0122042131E7002222
:1044900002213046FCF71CF8207801F0DBFA0122FB
:1044A000022126E7002239464046FCF711F8207821
:1044B00001F0D0FA0122394603E000226546614648
:1044C0000AE04046FCF704F86078BDE8F05F01F0D0
:1044D000C1BA0022054601464046FBF7F9FF2078A5
:1044E00001F0B8FA01222946EBE700225946284696
:1044F000FBF7EEFF207801F0ADFA0122594652E7B2
:1045000000221E4619462846FBF7E2FF207801F0FC
:10451000A1FA0122314646E7002280212846FBF716
:10452000D7FF207801F096FA012280213BE7002294
:1045300040212846FBF7CCFF207801F08BFA0122BE
:10454000402130E7002208213046FBF7C1FF2078E8
:1045500001F080FA01220821CBE600222021284622
:10456000FBF7B6FF207801F075FA012220211AE747
:10457000002210212846FBF7ABFF207801F06AFAF1
:10458000012210210FE7002208212846FBF7A0FF97
:10459000207801F05FFA0122082104E7BDE8F09FCE
:1045A0000000002000080140000C01400010014004
:1045B0007047000064214843B0FBF1F010B5094C8E
:1045C000C0B22070C0F16400607000F085FE2078F9
:1045D00001F040FA01F086FA6078BDE8104001F081
:1045E00039BA000000000020704700002DE9F05F9C
:1045F000FF4D04464FF48057102807D20022394659
:104600002846FBF765FF5020FBF752FE4FF4006889
:104610000F2C0BD2002241462846FBF759FF0121FF
:104620004620FFF7E9FD5020FBF742FE4FF480697A
:104630000E2C0FD2002249462846FBF749FF0221E3
:104640004620FFF7D9FD01211E20FFF7D5FD5020A0
:10465000FBF72EFE0D2C14D200224FF400712846D9
:10466000FBF736FF03214620FFF7C6FD02211E207F
:10467000FFF7C2FD01210846FFF7BEFD5020FBF702
:1046800017FE0C2C18D2002220212846FBF720FF11
:1046900004214620FFF7B0FD03211E20FFF7ACFDEB
:1046A00002210120FFF7A8FD012239462846FBF729
:1046B0000FFF3C20FBF7FCFD0B2C1ED200224FF419
:1046C00080712846FBF704FF05214620FFF794FD83
:1046D00004211E20FFF790FD03210120FFF78CFD30
:1046E000012241462846FBF7F3FE012239462846BF
:1046F000FBF7EEFE3C20FBF7DBFDBE4E0A2C23D27F
:1047000000224FF400413046FBF7E2FE062146202E
:10471000FFF772FD05211E20FFF76EFD0421012029
:10472000FFF76AFD012249462846FBF7D1FE012228
:1047300041462846FBF7CCFE012239462846FBF7C6
:10474000C7FE3C20FBF7B4FD4FF4804B092C27D269
:10475000002259463046FBF7BBFE07214620FFF7F3
:104760004BFD06211E20FFF747FD05210120FFF725
:1047700043FD012251022846FBF7AAFE01224946C9
:104780002846FBF7A5FE002241462846FBF7A0FE7F
:10479000012239462846FBF79BFE3220FBF788FDB5
:1047A0004FF4005A082C2CD2002251463046FBF719
:1047B0008FFE08214620FFF71FFD07211E20FFF76F
:1047C0001BFD06210120FFF717FD012220212846AD
:1047D000FBF77EFE012251022846FBF779FE0122FB
:1047E00049462846FBF774FE002241462846FBF75F
:1047F0006FFE012239462846FBF76AFE3220FBF79E
:1048000057FD072C31D2002239463046FBF760FEB7
:1048100009214620FFF7F0FC08211E20FFF7ECFCE1
:1048200007210120FFF7E8FC012211022846FBF7CF
:104830004FFE012220212846FBF74AFE01225102A9
:104840002846FBF745FE012249462846FBF740FE75
:10485000002241462846FBF73BFE01223946284606
:10486000FBF736FE2820FBF723FD062C36D200226C
:1048700041463046FBF72CFE0A214620FFF7BCFCE0
:1048800009211E20FFF7B8FC08210120FFF7B4FC26
:104890000122D1033046FBF71BFE012211022846FC
:1048A000FBF716FE012220212846FBF711FE01220C
:1048B00051022846FBF70CFE012249462846FBF729
:1048C00007FE002241462846FBF702FE0122394638
:1048D0002846FBF7FDFD2820FBF7EAFC052C3BD220
:1048E000002249463046FBF7F3FD0B214620FFF737
:1048F00083FC0A211E20FFF77FFC09210120FFF71E
:104900007BFC012259463046FBF7E2FD0122D10330
:104910003046FBF7DDFD012211022846FBF7D8FDEA
:10492000012220212846FBF7D3FD0122510228460F
:10493000FBF7CEFD012249462846FBF7C9FD0022C0
:1049400041462846FBF7C4FD012239462846FBF7BD
:10495000BFFD1E20FBF7ACFC042C40D2002204213A
:104960003046FBF7B5FD0C214620FFF745FC0B2137
:104970001E20FFF741FC0A210120FFF73DFC012228
:1049800051463046FBF7A4FD012259463046FBF75D
:104990009FFD0122D1033046FBF79AFD012211024F
:1049A0002846FBF795FD012220212846FBF790FDC4
:1049B000012251022846FBF78BFD01224946284679
:1049C000FBF786FD002241462846FBF781FD0122C8
:1049D00039462846FBF77CFD1E20FBF769FC032CBB
:1049E0004AD2002202213046FBF772FD0D2103E07E
:1049F00000080140000C01404620FFF7FDFB0C21A0
:104A00001E20FFF7F9FB0B210120FFF7F5FB012228
:104A100039463046FBF75CFD012251463046FBF734
:104A200057FD012259463046FBF752FD0122D103C2
:104A30003046FBF74DFD012211022846FBF748FDE9
:104A4000012220212846FBF743FD0122510228467E
:104A5000FBF73EFD012249462846FBF739FD0022BF
:104A600041462846FBF734FD012239462846FBF72C
:104A70002FFD1E20FBF71CFC022C4AD20022012134
:104A80003046FBF725FD0E214620FFF7B5FB0D2133
:104A90001E20FFF7B1FB0C210120FFF7ADFB012227
:104AA00041463046FBF714FD012239463046FBF7FC
:104AB0000FFD012251463046FBF70AFD01225946FF
:104AC0003046FBF705FD0122D1033046FBF700FD20
:104AD000012211022846FBF7FBFC01222021284677
:104AE000FBF7F6FC012251022846FBF7F1FC0122FC
:104AF00049462846FBF7ECFC002241462846FBF7D6
:104B0000E7FC012239462846FBF7E2FC1E20FBF7B2
:104B1000CFFB002C4DD1002280212846FBF7D8FC8A
:104B20000F214620FFF768FB0E211E20FFF764FBD4
:104B30000D210120FFF760FB01224446414630462B
:104B4000FBF7C6FC012239463046FBF7C1FC0122C7
:104B500051463046FBF7BCFC012259463046FBF774
:104B6000B7FC0122D1033046FBF7B2FC012211024F
:104B70002846FBF7ADFC012220212846FBF7A8FCC4
:104B8000012251022846FBF7A3FC01224946284690
:104B9000FBF79EFC002221462846FBF799FC0122E8
:104BA00039462846FBF794FCBDE8F05F1E20FBF772
:104BB0007FBBBDE8F09F00002DE9F05FFF4E04468B
:104BC0004FF40048102807D2002241463046FBF738
:104BD0007FFC5020FBF76CFBF94D0F2C0BD2002211
:104BE00008212846FBF774FC20214620FFF704FB30
:104BF0005020FBF75DFB0E2C0FD20022102128461F
:104C0000FBF766FC1F214620FFF7F6FA20211E2045
:104C1000FFF7F2FA3C20FBF74BFB0D2C13D20022DE
:104C200020212846FBF754FC1E214620FFF7E4FA1A
:104C30001F211E20FFF7E0FA20210120FFF7DCFAF8
:104C40005020FBF735FB0C2C18D2002208213046EF
:104C5000FBF73EFC1D214620FFF7CEFA1E21084639
:104C6000FFF7CAFA1F210120FFF7C6FA01224146C9
:104C70003046FBF72DFC5020FBF71AFB0B2C1DD206
:104C8000002240212846FBF723FC1C214620FFF789
:104C9000B3FA1D211E20FFF7AFFA1E210120FFF7F6
:104CA000ABFA012208212846FBF712FC01224146FB
:104CB0003046FBF70DFC3C20FBF7FAFA0A2C22D217
:104CC000002280212846FBF703FC1B214620FFF72A
:104CD00093FA1C211E20FFF78FFA1D210120FFF7F8
:104CE0008BFA012210212846FBF7F2FB0122082152
:104CF0002846FBF7EDFB012241463046FBF7E8FB77
:104D00003220FBF7D5FA092C28D200224FF480710B
:104D10002846FBF7DDFB1A214620FFF76DFA1B2121
:104D20001E20FFF769FA1C210120FFF765FA012216
:104D300020212846FBF7CCFB012210212846FBF757
:104D4000C7FB002208212846FBF7C2FB012241468F
:104D50003046FBF7BDFB3220FBF7AAFA4FF4007B8D
:104D6000082C2CD2002259462846FBF7B1FB19210A
:104D70004620FFF741FA1A211E20FFF73DFA1B21BA
:104D80000120FFF739FA012208213046FBF7A0FB8A
:104D9000012220212846FBF79BFB002210212846F8
:104DA000FBF796FB012208212846FBF791FB012225
:104DB00041463046FBF78CFB3220FBF779FA814FF6
:104DC0004FF4005A072C31D2002251463846FBF7E7
:104DD0007FFB18214620FFF70FFA19211E20FFF74D
:104DE0000BFA1A210120FFF707FA01224021284679
:104DF000FBF76EFB012208213046FBF769FB00221E
:104E000020212846FBF764FB012210212846FBF7EE
:104E10005FFB012208212846FBF75AFB012241468D
:104E20003046FBF755FB2820FBF742FA4FF4804948
:104E3000062C36D2002249463846FBF749FB17219B
:104E40004620FFF7D9F918211E20FFF7D5F91921BF
:104E50000120FFF7D1F9012280212846FBF738FB1A
:104E6000012240212846FBF733FB0022082130466F
:104E7000FBF72EFB012220212846FBF729FB01220C
:104E800010212846FBF724FB012208212846FBF7C6
:104E90001FFB012241463046FBF71AFB2820FBF797
:104EA00007FA052C3BD2002241463846FBF710FB9F
:104EB00016214620FFF7A0F917211E20FFF79CF9C5
:104EC00018210120FFF798F9012211022846FBF76B
:104ED000FFFA012280212846FBF7FAFA002240213E
:104EE0002846FBF7F5FA012208213046FBF7F0FAD5
:104EF000012220212846FBF7EBFA01221021284647
:104F0000FBF7E6FA012208212846FBF7E1FA012225
:104F100041463046FBF7DCFA1E20FBF7C9F9042CAA
:104F200040D2002202213046FBF7D2FA152146205A
:104F3000FFF762F916211E20FFF75EF91721012005
:104F4000FFF75AF9012259462846FBF7C1FA012218
:104F500011022846FBF7BCFA012280212846FBF704
:104F6000B7FA012240212846FBF7B2FA01220821B4
:104F70003046FBF7ADFA012220212846FBF7A8FABC
:104F8000012210212846FBF7A3FA01220821284616
:104F9000FBF79EFA002241463046FBF799FA1E20A5
:104FA000FBF786F9032C4CD2002204213046FBF794
:104FB0008FFA14214620FFF71FF905E00008014091
:104FC000000C01400010014015211E20FFF714F9CC
:104FD00016210120FFF710F9012251463846FBF750
:104FE00077FA012259462846FBF772FA012211028C
:104FF0002846FBF76DFA012280212846FBF768FA64
:10500000012240212846FBF763FA0122082130469D
:10501000FBF75EFA012220212846FBF759FA01220C
:1050200010212846FBF754FA002208212846FBF7F6
:105030004FFA012241463046FBF74AFA1E20FBF7A1
:1050400037F9022C4AD2002210213046FBF740FAF1
:1050500013214620FFF7D0F814211E20FFF7CCF8CB
:1050600015210120FFF7C8F8012249463846FBF711
:105070002FFA012251463846FBF72AFA01225946F7
:105080002846FBF725FA012211022846FBF720FAF1
:10509000012280212846FBF71BFA012240212846E5
:1050A000FBF716FA012208213046FBF711FA01221C
:1050B00020212846FBF70CFA002210212846FBF796
:1050C00007FA012208212846FBF702FA012241468D
:1050D0003046FBF7FDF91E20FBF7EAF8002C52D111
:1050E000002240213046FBF7F3F912214620FFF75A
:1050F00083F813211E20FFF77FF814210120FFF70A
:105100007BF80122444641463846FBF7E1F901228B
:1051100049463846FBF7DCF9012251463846FBF791
:10512000D7F9012259462846FBF7D2F9012211028C
:105130002846FBF7CDF9012280212846FBF7C8F964
:10514000012240212846FBF7C3F9012208213046FD
:10515000FBF7BEF9002220212846FBF7B9F901220E
:1051600010212846FBF7B4F9012208212846FBF755
:10517000AFF9012221463046FBF7AAF9BDE8F05FFE
:105180001E20FBF795B8BDE8F09FFBF7ADB910B551
:1051900090B028216846FBF717F814210AA8FBF7FE
:1051A00013F80220009001200490102000240590A4
:1051B00007946846FBF7ECFA08B172B6FEE70F20D9
:1051C000CDE90A040C940D9400210AA80E94FBF773
:1051D00023FA002801D072B6FEE710B010BD704768
:1051E000F0B50268164B174C174D4FF080479842A8
:1051F00005D0B84203D0A04201D0A84203D122F08A
:1052000070064A683243984205D0B84203D0A042A3
:1052100001D0A84203D122F44074CA6822434C69E9
:1052200022F08002224302608A68C2620A688262B7
:10523000984201D10969016301214161F0BD00007B
:10524000002C0140000400400008004010B58468B4
:1052500042EA032224F47F440A432243826010BDC1
:10526000826822F070020A4342F0070181607047B1
:1052700010B5036A046A24F001040462846924F00E
:10528000F00444EA021423F00A020A438461026231
:1052900010BD10B5036A046A24F010040462846926
:1052A00023F0A00324F4704444EA023243EA0111DB
:1052B0008261016210BDFEE70907090E002804DBC8
:1052C00000F1E02080F80014704700F00F0000F1BA
:1052D000E02080F8141D70472DE9F05F574D4FF422
:1052E0008054002221462846FBF7F2F8661000227F
:1052F00031462846FBF7ECF8A7100022394628462D
:10530000FBF7E6F84FF40078002241462846FBF709
:10531000DFF8002220212846FBF7DAF84FF48079E5
:10532000002249462846FBF7D3F8DFF814B14FF4C2
:10533000004A002251465846FBF7CAF80022A10055
:105340005846FBF7C5F8002261005846FBF7C0F845
:10535000002221465846FBF7BBF80022314658464A
:10536000FBF7B6F8002239465846FBF7B1F80022A1
:1053700004215846FBF7ACF8002202215846FBF7FF
:10538000A7F8002201215846FBF7A2F8002280214D
:105390002846FBF79DF8002240212846FBF798F8A5
:1053A000002210212846FBF793F80022042128460A
:1053B000FBF78EF8002202212846FBF789F8214CE2
:1053C000002251462046FBF783F80022F1002046D8
:1053D000FBF77EF8002261142046FBF779F80022E3
:1053E00041465846FBF774F8002249465846FBF7F9
:1053F0006FF8002280215846FBF76AF8002240210E
:105400005846FBF765F8002208212846FBF760F8AC
:10541000002220215846FBF75BF800221021584655
:10542000FBF756F8002208215846FBF751F8514681
:105430002846BDE8F05F0022FBF74AB800080140AB
:10544000000C0140001001402DE9F05F4FF4805442
:1054500000222146FE4D2846FBF73AF8FD4F660034
:10546000002231463846FBF733F800224021284617
:10547000FBF72EF84FF48078002241463846FBF7C0
:1054800027F84620FAF714FF4FF400690022494636
:105490002846FBF71DF8002221463846FBF718F88E
:1054A000002210212846FBF713F8002280213846FD
:1054B000FBF70EF84620FAF7FBFE4FF4806A002255
:1054C00051462846FBF704F8002249463846FAF7C9
:1054D000FFFF002204212846FAF7FAFF00224021AC
:1054E0003846FAF7F5FF4620FAF7E2FE4FF4007B64
:1054F000002259462846FAF7EBFF0022514638466B
:10550000FAF7E6FF002202212846FAF7E1FF00221F
:1055100008212846FAF7DCFF4620FAF7C9FE0022E8
:1055200020212846FAF7D4FF002204213846FAF752
:10553000CFFF0022E100C848FAF7CAFF002220216D
:105540003846FAF7C5FF4620FAF7B2FE0022414678
:105550002846FAF7BDFF002202213846FAF7B8FFC5
:105560000022A100BC48FAF7B3FF00221021384600
:10557000FAF7AEFF4620FAF79BFE0022E10038461C
:10558000FAF7A6FF002201213846FAF7A1FF002210
:105590003146B148FAF79CFF002208213846FAF755
:1055A00097FF4620FAF784FE0022A1003846FAF75A
:1055B0008FFF002280212846FAF78AFF00225946F1
:1055C0003846FAF785FF0022E1002846FAF780FF07
:1055D0004620FAF76DFE012291033846FAF778FF6C
:1055E000012280212846FAF773FF012259463846E6
:1055F000FAF76EFF0122D1032846FAF769FF462029
:10560000FAF756FE0122D1033846FAF761FF01226C
:1056100011463846FAF75CFF012231468E48FAF708
:1056200057FF012208213846FAF752FF4620FAF7C1
:105630003FFE012241462846FAF74AFF0122022195
:105640003846FAF745FF012291038348FAF740FFF5
:10565000012210213846FAF73BFF4620FAF728FED0
:10566000012220212846FAF733FF0122042138467F
:10567000FAF72EFF0122D1037748FAF729FF01221A
:1056800020213846FAF724FF4620FAF711FE0122BE
:1056900059462846FAF71CFF012251463846FAF7C8
:1056A00017FF012202212846FAF712FF01220821E2
:1056B0002846FAF70DFF4620FAF7FAFD0122514677
:1056C0002846FAF705FF012249463846FAF700FF57
:1056D000012204212846FAF7FBFE01224021384628
:1056E000FAF7F6FE4620FAF7E3FD0122494628467E
:1056F000FAF7EEFE012221463846FAF7E9FE0122CA
:1057000010212846FAF7E4FE012280213846FAF7F4
:10571000DFFE4620FAF7CCFD012221462846FAF7A3
:10572000D7FE012231463846FAF7D2FE0122402147
:105730002846FAF7CDFE012241463846FAF7C8FE60
:105740004620FAF7B5FD0022A1003846FAF7C0FE60
:10575000002280212846FAF7BBFE0022594638462F
:10576000FAF7B6FE0022E1002846FAF7B1FE46201D
:10577000FAF79EFD0022E1003846FAF7A9FE002262
:1057800001213846FAF7A4FE002231463248FAF7E2
:105790009FFE002208213846FAF79AFE4620FAF7C3
:1057A00087FD002241462846FAF792FE0022022198
:1057B0003846FAF78DFE0022A1002748FAF788FE46
:1057C000002210213846FAF783FE4620FAF770FDD2
:1057D000002220212846FAF77BFE002204213846C9
:1057E000FAF776FE0022E1001B48FAF771FE00226C
:1057F00020213846FAF76CFE4620FAF759FD0022C0
:1058000059462846FAF764FE002251463846FAF710
:105810005FFE002202212846FAF75AFE00220821E4
:105820002846FAF755FE4620FAF742FD0022514677
:105830002846FAF74DFE002249463846FAF748FE58
:10584000002204212846FAF743FE0022402105E009
:1058500000080140000C0140001001403846FAF7F2
:1058600037FE4620FAF724FD002249462846FAF77B
:105870002FFE002221463846FAF72AFE0022102188
:105880002846FAF725FE002280213846FAF720FE46
:105890004620FAF70DFD002221462846FAF718FEA9
:1058A000002231463846FAF713FE002240212846EE
:1058B000FAF70EFE002241463846FAF709FE462066
:1058C000FAF7F6FC012221462846FAF701FE0122EA
:1058D00031463846FAF7FCFD012240212846FAF706
:1058E000F7FD012241463846FAF7F2FD4620FAF765
:1058F000DFFC012249462846FAF7EAFD012221464B
:105900003846FAF7E5FD012210212846FAF7E0FDB6
:10591000012280213846FAF7DBFD4620FAF7C8FC61
:10592000012251462846FAF7D3FD0122494638465E
:10593000FAF7CEFD012204212846FAF7C9FD01221B
:1059400040213846FAF7C4FD4620FAF7B1FC01229F
:1059500059462846FAF7BCFD012251463846FAF767
:10596000B7FD012202212846FAF7B2FD01220821E3
:105970002846FAF7ADFD4620FAF79AFC01222021CD
:105980002846FAF7A5FD012204213846FAF7A0FDC2
:105990000122D1032848FAF79BFD01222021384635
:1059A000FAF796FD4620FAF783FC01224146284685
:1059B000FAF78EFD012202213846FAF789FD01220D
:1059C00091031D48FAF784FD012210213846FAF7A9
:1059D0007FFD4620FAF76CFC0122D1033846FAF726
:1059E00077FD012211463846FAF772FD0122314651
:1059F0001148FAF76DFD012208213846FAF768FDD3
:105A00004620FAF755FC012291033846FAF760FD6B
:105A1000012280212846FAF75BFD012259463846CB
:105A2000FAF756FD0122D1032846FAF751FDBDE8E9
:105A3000F05F4620FAF73CBC00100140044800210A
:105A4000026851620068416A0829FCD3704700006F
:105A50002000002000B5034603E05B1E9BB2FFF769
:105A6000EDFF002BF9D100BDFAF746FDFFF78FFBE4
:105A7000FCF76AFCFCF7DCFC1848FBF7A3F800F025
:105A800031F8174CA07878B9FCF708FDFDF7EAFB70
:105A9000FDF72AFCFDF73CFCFDF760FCFDF770FD0F
:105AA000FDF7F2FEFDF77CFDA07801280AD0022860
:105AB0000BD003280CD004280DD00528E2D1FDF727
:105AC0004DFCDFE7FCF7EAFCDCE7FDF7CBFBD9E7B1
:105AD000FDF70AFCD6E7FDF71BFCD3E7200000200A
